{
  "contractName": "TokenProxy",
  "abi": [
    {
      "inputs": [
        {
          "internalType": "address",
          "name": "_core",
          "type": "address"
        }
      ],
      "payable": false,
      "stateMutability": "nonpayable",
      "type": "constructor"
    },
    {
      "anonymous": false,
      "inputs": [
        {
          "indexed": true,
          "internalType": "address",
          "name": "owner",
          "type": "address"
        },
        {
          "indexed": true,
          "internalType": "address",
          "name": "spender",
          "type": "address"
        },
        {
          "indexed": false,
          "internalType": "uint256",
          "name": "value",
          "type": "uint256"
        }
      ],
      "name": "Approval",
      "type": "event"
    },
    {
      "anonymous": false,
      "inputs": [
        {
          "indexed": true,
          "internalType": "address",
          "name": "from",
          "type": "address"
        },
        {
          "indexed": true,
          "internalType": "address",
          "name": "to",
          "type": "address"
        },
        {
          "indexed": false,
          "internalType": "uint256",
          "name": "value",
          "type": "uint256"
        }
      ],
      "name": "Transfer",
      "type": "event"
    },
    {
      "constant": true,
      "inputs": [],
      "name": "core",
      "outputs": [
        {
          "internalType": "address",
          "name": "",
          "type": "address"
        }
      ],
      "payable": false,
      "stateMutability": "view",
      "type": "function"
    },
    {
      "constant": true,
      "inputs": [],
      "name": "owner",
      "outputs": [
        {
          "internalType": "address",
          "name": "",
          "type": "address"
        }
      ],
      "payable": false,
      "stateMutability": "view",
      "type": "function"
    },
    {
      "constant": true,
      "inputs": [],
      "name": "name",
      "outputs": [
        {
          "internalType": "string",
          "name": "",
          "type": "string"
        }
      ],
      "payable": false,
      "stateMutability": "view",
      "type": "function"
    },
    {
      "constant": true,
      "inputs": [],
      "name": "symbol",
      "outputs": [
        {
          "internalType": "string",
          "name": "",
          "type": "string"
        }
      ],
      "payable": false,
      "stateMutability": "view",
      "type": "function"
    },
    {
      "constant": true,
      "inputs": [],
      "name": "decimals",
      "outputs": [
        {
          "internalType": "uint256",
          "name": "",
          "type": "uint256"
        }
      ],
      "payable": false,
      "stateMutability": "view",
      "type": "function"
    },
    {
      "constant": true,
      "inputs": [],
      "name": "totalSupply",
      "outputs": [
        {
          "internalType": "uint256",
          "name": "",
          "type": "uint256"
        }
      ],
      "payable": false,
      "stateMutability": "view",
      "type": "function"
    },
    {
      "constant": true,
      "inputs": [
        {
          "internalType": "address",
          "name": "_owner",
          "type": "address"
        }
      ],
      "name": "balanceOf",
      "outputs": [
        {
          "internalType": "uint256",
          "name": "",
          "type": "uint256"
        }
      ],
      "payable": false,
      "stateMutability": "view",
      "type": "function"
    },
    {
      "constant": true,
      "inputs": [
        {
          "internalType": "address",
          "name": "_owner",
          "type": "address"
        },
        {
          "internalType": "address",
          "name": "_spender",
          "type": "address"
        }
      ],
      "name": "allowance",
      "outputs": [
        {
          "internalType": "uint256",
          "name": "",
          "type": "uint256"
        }
      ],
      "payable": false,
      "stateMutability": "view",
      "type": "function"
    },
    {
      "constant": false,
      "inputs": [
        {
          "internalType": "address",
          "name": "_to",
          "type": "address"
        },
        {
          "internalType": "uint256",
          "name": "_value",
          "type": "uint256"
        }
      ],
      "name": "transfer",
      "outputs": [
        {
          "internalType": "bool",
          "name": "status",
          "type": "bool"
        }
      ],
      "payable": false,
      "stateMutability": "nonpayable",
      "type": "function"
    },
    {
      "constant": false,
      "inputs": [
        {
          "internalType": "address",
          "name": "_from",
          "type": "address"
        },
        {
          "internalType": "address",
          "name": "_to",
          "type": "address"
        },
        {
          "internalType": "uint256",
          "name": "_value",
          "type": "uint256"
        }
      ],
      "name": "transferFrom",
      "outputs": [
        {
          "internalType": "bool",
          "name": "status",
          "type": "bool"
        }
      ],
      "payable": false,
      "stateMutability": "nonpayable",
      "type": "function"
    },
    {
      "constant": false,
      "inputs": [
        {
          "internalType": "address",
          "name": "_spender",
          "type": "address"
        },
        {
          "internalType": "uint256",
          "name": "_value",
          "type": "uint256"
        }
      ],
      "name": "approve",
      "outputs": [
        {
          "internalType": "bool",
          "name": "status",
          "type": "bool"
        }
      ],
      "payable": false,
      "stateMutability": "nonpayable",
      "type": "function"
    },
    {
      "constant": false,
      "inputs": [
        {
          "internalType": "address",
          "name": "_spender",
          "type": "address"
        },
        {
          "internalType": "uint256",
          "name": "_addedValue",
          "type": "uint256"
        }
      ],
      "name": "increaseApproval",
      "outputs": [
        {
          "internalType": "bool",
          "name": "status",
          "type": "bool"
        }
      ],
      "payable": false,
      "stateMutability": "nonpayable",
      "type": "function"
    },
    {
      "constant": false,
      "inputs": [
        {
          "internalType": "address",
          "name": "_spender",
          "type": "address"
        },
        {
          "internalType": "uint256",
          "name": "_subtractedValue",
          "type": "uint256"
        }
      ],
      "name": "decreaseApproval",
      "outputs": [
        {
          "internalType": "bool",
          "name": "status",
          "type": "bool"
        }
      ],
      "payable": false,
      "stateMutability": "nonpayable",
      "type": "function"
    },
    {
      "constant": false,
      "inputs": [
        {
          "internalType": "address",
          "name": "_from",
          "type": "address"
        },
        {
          "internalType": "address",
          "name": "_to",
          "type": "address"
        },
        {
          "internalType": "uint256",
          "name": "_value",
          "type": "uint256"
        }
      ],
      "name": "canTransfer",
      "outputs": [
        {
          "internalType": "uint256",
          "name": "",
          "type": "uint256"
        }
      ],
      "payable": false,
      "stateMutability": "nonpayable",
      "type": "function"
    },
    {
      "constant": false,
      "inputs": [
        {
          "internalType": "address",
          "name": "_from",
          "type": "address"
        },
        {
          "internalType": "address",
          "name": "_to",
          "type": "address"
        },
        {
          "internalType": "uint256",
          "name": "_value",
          "type": "uint256"
        }
      ],
      "name": "emitTransfer",
      "outputs": [
        {
          "internalType": "bool",
          "name": "",
          "type": "bool"
        }
      ],
      "payable": false,
      "stateMutability": "nonpayable",
      "type": "function"
    },
    {
      "constant": false,
      "inputs": [
        {
          "internalType": "address",
          "name": "_owner",
          "type": "address"
        },
        {
          "internalType": "address",
          "name": "_spender",
          "type": "address"
        },
        {
          "internalType": "uint256",
          "name": "_value",
          "type": "uint256"
        }
      ],
      "name": "emitApproval",
      "outputs": [
        {
          "internalType": "bool",
          "name": "",
          "type": "bool"
        }
      ],
      "payable": false,
      "stateMutability": "nonpayable",
      "type": "function"
    }
  ],
  "bytecode": "0x608060405234801561001057600080fd5b50604051610cc2380380610cc28339818101604052602081101561003357600080fd5b5051600080546001600160a01b039092166001600160a01b0319909216919091179055610c5d806100656000396000f3fe608060405234801561001057600080fd5b50600436106101005760003560e01c806370a0823111610097578063d73dd62311610066578063d73dd62314610330578063dd62ed3e1461035c578063e46638e61461038a578063f2f4eb26146103c057610100565b806370a08231146102b25780638da5cb5b146102d857806395d89b41146102fc578063a9059cbb1461030457610100565b806323de6651116100d357806323de665114610212578063313ce567146102485780635687f2b814610250578063661884631461028657610100565b806306fdde0314610105578063095ea7b31461018257806318160ddd146101c257806323b872dd146101dc575b600080fd5b61010d6103c8565b6040805160208082528351818301528351919283929083019185019080838360005b8381101561014757818101518382015260200161012f565b50505050905090810190601f1680156101745780820380516001836020036101000a031916815260200191505b509250505060405180910390f35b6101ae6004803603604081101561019857600080fd5b506001600160a01b038135169060200135610517565b604080519115158252519081900360200190f35b6101ca6105bf565b60408051918252519081900360200190f35b6101ae600480360360608110156101f257600080fd5b506001600160a01b0381358116916020810135909116906040013561063f565b6101ae6004803603606081101561022857600080fd5b506001600160a01b038135811691602081013590911690604001356106f0565b6101ca61078e565b6101ae6004803603606081101561026657600080fd5b506001600160a01b038135811691602081013590911690604001356107dd565b6101ae6004803603604081101561029c57600080fd5b506001600160a01b03813516906020013561087b565b6101ca600480360360208110156102c857600080fd5b50356001600160a01b03166108f0565b6102e0610989565b604080516001600160a01b039092168252519081900360200190f35b61010d6109d8565b6101ae6004803603604081101561031a57600080fd5b506001600160a01b038135169060200135610a35565b6101ae6004803603604081101561034657600080fd5b506001600160a01b038135169060200135610aaa565b6101ca6004803603604081101561037257600080fd5b506001600160a01b0381358116916020013516610b1f565b6101ca600480360360608110156103a057600080fd5b506001600160a01b03813581169160208101359091169060400135610ba2565b6102e0610c19565b60008054604080517f6c02a93100000000000000000000000000000000000000000000000000000000815290516060936001600160a01b0390931692636c02a9319260048082019391829003018186803b15801561042557600080fd5b505afa158015610439573d6000803e3d6000fd5b505050506040513d6000823e601f3d908101601f19168201604052602081101561046257600080fd5b810190808051604051939291908464010000000082111561048257600080fd5b90830190602082018581111561049757600080fd5b82516401000000008111828201881017156104b157600080fd5b82525081516020918201929091019080838360005b838110156104de5781810151838201526020016104c6565b50505050905090810190601f16801561050b5780820380516001836020036101000a031916815260200191505b50604052505050905090565b60008054604080517fe1f21c670000000000000000000000000000000000000000000000000000000081523360048201526001600160a01b038681166024830152604482018690529151919092169163e1f21c6791606480830192602092919082900301818787803b15801561058c57600080fd5b505af11580156105a0573d6000803e3d6000fd5b505050506040513d60208110156105b657600080fd5b50519392505050565b60008060009054906101000a90046001600160a01b03166001600160a01b031663f7abab9e6040518163ffffffff1660e01b815260040160206040518083038186803b15801561060e57600080fd5b505afa158015610622573d6000803e3d6000fd5b505050506040513d602081101561063857600080fd5b5051905090565b60008054604080517f15dacbea0000000000000000000000000000000000000000000000000000000081523360048201526001600160a01b038781166024830152868116604483015260648201869052915191909216916315dacbea91608480830192602092919082900301818787803b1580156106bc57600080fd5b505af11580156106d0573d6000803e3d6000fd5b505050506040513d60208110156106e657600080fd5b5051949350505050565b600080546001600160a01b03163314610739576040805162461bcd60e51b815260206004808301919091526024820152635052303160e01b604482015290519081900360640190fd5b826001600160a01b0316846001600160a01b03167fddf252ad1be2c89b69c2b068fc378daa952ba7f163c4a11628f55a4df523b3ef846040518082815260200191505060405180910390a35060019392505050565b60008060009054906101000a90046001600160a01b03166001600160a01b0316633b97e8566040518163ffffffff1660e01b815260040160206040518083038186803b15801561060e57600080fd5b600080546001600160a01b03163314610826576040805162461bcd60e51b815260206004808301919091526024820152635052303160e01b604482015290519081900360640190fd5b826001600160a01b0316846001600160a01b03167f8c5be1e5ebec7d5bd14f71427d1e84f3dd0314c0f7b2291e5b200ac8c7c3b925846040518082815260200191505060405180910390a35060019392505050565b60008054604080517ff019c2670000000000000000000000000000000000000000000000000000000081523360048201526001600160a01b038681166024830152604482018690529151919092169163f019c26791606480830192602092919082900301818787803b15801561058c57600080fd5b60008054604080517fe42c08f20000000000000000000000000000000000000000000000000000000081526001600160a01b0385811660048301529151919092169163e42c08f2916024808301926020929190829003018186803b15801561095757600080fd5b505afa15801561096b573d6000803e3d6000fd5b505050506040513d602081101561098157600080fd5b505192915050565b60008060009054906101000a90046001600160a01b03166001600160a01b0316638da5cb5b6040518163ffffffff1660e01b815260040160206040518083038186803b15801561060e57600080fd5b60008054604080517f7b61c32000000000000000000000000000000000000000000000000000000000815290516060936001600160a01b0390931692637b61c3209260048082019391829003018186803b15801561042557600080fd5b60008054604080517fbeabacc80000000000000000000000000000000000000000000000000000000081523360048201526001600160a01b038681166024830152604482018690529151919092169163beabacc891606480830192602092919082900301818787803b15801561058c57600080fd5b60008054604080517fbcdd61210000000000000000000000000000000000000000000000000000000081523360048201526001600160a01b038681166024830152604482018690529151919092169163bcdd612191606480830192602092919082900301818787803b15801561058c57600080fd5b60008054604080517f119c1c230000000000000000000000000000000000000000000000000000000081526001600160a01b03868116600483015285811660248301529151919092169163119c1c23916044808301926020929190829003018186803b158015610b8e57600080fd5b505afa1580156105a0573d6000803e3d6000fd5b60008054604080517fe46638e60000000000000000000000000000000000000000000000000000000081526001600160a01b0387811660048301528681166024830152604482018690529151919092169163e46638e691606480830192602092919082900301818787803b1580156106bc57600080fd5b6000546001600160a01b03168156fea265627a7a723158202bc99e78ea266d070ab6fc246b732417605f1ca2a4ea9c569b58b9a0b919a55664736f6c634300050c0032",
  "source": "pragma solidity >=0.5.0 <0.6.0;\n\nimport \"./operable/OperableProxy.sol\";\nimport \"./TokenCore.sol\";\nimport \"./interface/IERC20.sol\";\n\n\n/**\n * @title Token proxy\n * @dev Token proxy default implementation\n * @author Cyril Lapinte - <cyril.lapinte@openfiz.com>\n */\ncontract TokenProxy is IERC20, OperableProxy {\n\n  // solhint-disable-next-line no-empty-blocks\n  constructor(address _core) public OperableProxy(_core) { }\n\n  function name() public view returns (string memory) {\n    return TokenCore(core).tokenName();\n  }\n\n  function symbol() public view returns (string memory) {\n    return TokenCore(core).tokenSymbol();\n  }\n\n  function decimals() public view returns (uint256) {\n    return TokenCore(core).tokenDecimals();\n  }\n\n  function totalSupply() public view returns (uint256) {\n    return TokenCore(core).tokenTotalSupply();\n  }\n\n  function balanceOf(address _owner) public view returns (uint256) {\n    return TokenCore(core).tokenBalanceOf(_owner);\n  }\n\n  function allowance(address _owner, address _spender)\n    public view returns (uint256)\n  {\n    return TokenCore(core).tokenAllowance(_owner, _spender);\n  }\n\n  function transfer(address _to, uint256 _value) public returns (bool status)\n  {\n    return TokenCore(core).transfer(msg.sender, _to, _value);\n  }\n\n  function transferFrom(address _from, address _to, uint256 _value)\n    public returns (bool status)\n  {\n    return TokenCore(core).transferFrom(msg.sender, _from, _to, _value);\n  }\n\n  function approve(address _spender, uint256 _value)\n    public returns (bool status)\n  {\n    return TokenCore(core).approve(msg.sender, _spender, _value);\n  }\n\n  function increaseApproval(address _spender, uint256 _addedValue)\n    public returns (bool status)\n  {\n    return TokenCore(core).increaseApproval(msg.sender, _spender, _addedValue);\n  }\n\n  function decreaseApproval(address _spender, uint256 _subtractedValue)\n    public returns (bool status)\n  {\n    return TokenCore(core).decreaseApproval(msg.sender, _spender, _subtractedValue);\n  }\n\n  function canTransfer(address _from, address _to, uint256 _value)\n    public returns (uint256)\n  {\n    return TokenCore(core).canTransfer(_from, _to, _value);\n  }\n\n  function emitTransfer(address _from, address _to, uint256 _value)\n    public onlyCore returns (bool)\n  {\n    emit Transfer(_from, _to, _value);\n    return true;\n  }\n\n  function emitApproval(address _owner, address _spender, uint256 _value)\n    public onlyCore returns (bool)\n  {\n    emit Approval(_owner, _spender, _value);\n    return true;\n  }\n\n  event Transfer(address indexed from, address indexed to, uint256 value);\n  event Approval(\n    address indexed owner,\n    address indexed spender,\n    uint256 value\n  );\n}\n",
  "sourcePath": "/home/benjamin/work/clayer/contracts/c-layer-core/contracts/TokenProxy.sol",
  "compiler": {
    "name": "solc",
    "version": "0.5.12+commit.7709ece9.Emscripten.clang"
  },
  "schemaVersion": "3.0.23",
  "updatedAt": "2020-03-14T17:10:02.733Z",
  "devdoc": {
    "author": "Cyril Lapinte - <cyril.lapinte@openfiz.com>",
    "details": "Token proxy default implementation",
    "methods": {
      "owner()": {
        "details": "rely on the core configuration for ownership"
      }
    },
    "title": "Token proxy"
  },
  "userdoc": {
    "methods": {}
  }
}