{
  "contractName": "TokenDelegate",
  "abi": [
    {
      "anonymous": false,
      "inputs": [
        {
          "indexed": true,
          "internalType": "address",
          "name": "scope",
          "type": "address"
        },
        {
          "indexed": false,
          "internalType": "uint256",
          "name": "scopeId",
          "type": "uint256"
        },
        {
          "indexed": false,
          "internalType": "address[]",
          "name": "addresses",
          "type": "address[]"
        },
        {
          "indexed": false,
          "internalType": "bool[]",
          "name": "values",
          "type": "bool[]"
        }
      ],
      "name": "AuditSelectorDefined",
      "type": "event"
    },
    {
      "anonymous": false,
      "inputs": [
        {
          "indexed": true,
          "internalType": "address",
          "name": "token",
          "type": "address"
        },
        {
          "indexed": false,
          "internalType": "contract IClaimable[]",
          "name": "claimables",
          "type": "address[]"
        }
      ],
      "name": "ClaimablesDefined",
      "type": "event"
    },
    {
      "anonymous": false,
      "inputs": [
        {
          "indexed": false,
          "internalType": "address",
          "name": "address_",
          "type": "address"
        },
        {
          "indexed": false,
          "internalType": "uint256",
          "name": "until",
          "type": "uint256"
        }
      ],
      "name": "Freeze",
      "type": "event"
    },
    {
      "anonymous": false,
      "inputs": [
        {
          "indexed": true,
          "internalType": "address",
          "name": "token",
          "type": "address"
        },
        {
          "indexed": false,
          "internalType": "uint256",
          "name": "amount",
          "type": "uint256"
        }
      ],
      "name": "Issue",
      "type": "event"
    },
    {
      "anonymous": false,
      "inputs": [
        {
          "indexed": true,
          "internalType": "address",
          "name": "token",
          "type": "address"
        },
        {
          "indexed": false,
          "internalType": "uint256",
          "name": "startAt",
          "type": "uint256"
        },
        {
          "indexed": false,
          "internalType": "uint256",
          "name": "endAt",
          "type": "uint256"
        },
        {
          "indexed": false,
          "internalType": "address[]",
          "name": "exceptions",
          "type": "address[]"
        }
      ],
      "name": "LockDefined",
      "type": "event"
    },
    {
      "anonymous": false,
      "inputs": [
        {
          "indexed": true,
          "internalType": "address",
          "name": "token",
          "type": "address"
        },
        {
          "indexed": false,
          "internalType": "uint256",
          "name": "amount",
          "type": "uint256"
        }
      ],
      "name": "Mint",
      "type": "event"
    },
    {
      "anonymous": false,
      "inputs": [
        {
          "indexed": true,
          "internalType": "address",
          "name": "token",
          "type": "address"
        }
      ],
      "name": "MintFinished",
      "type": "event"
    },
    {
      "anonymous": false,
      "inputs": [
        {
          "indexed": false,
          "internalType": "contract IUserRegistry",
          "name": "userRegistry",
          "type": "address"
        },
        {
          "indexed": false,
          "internalType": "contract IRatesProvider",
          "name": "ratesProvider",
          "type": "address"
        },
        {
          "indexed": false,
          "internalType": "bytes32",
          "name": "currency",
          "type": "bytes32"
        },
        {
          "indexed": false,
          "internalType": "uint256[]",
          "name": "userKeys",
          "type": "uint256[]"
        }
      ],
      "name": "OraclesDefined",
      "type": "event"
    },
    {
      "anonymous": false,
      "inputs": [
        {
          "indexed": true,
          "internalType": "address",
          "name": "previousOwner",
          "type": "address"
        }
      ],
      "name": "OwnershipRenounced",
      "type": "event"
    },
    {
      "anonymous": false,
      "inputs": [
        {
          "indexed": true,
          "internalType": "address",
          "name": "previousOwner",
          "type": "address"
        },
        {
          "indexed": true,
          "internalType": "address",
          "name": "newOwner",
          "type": "address"
        }
      ],
      "name": "OwnershipTransferred",
      "type": "event"
    },
    {
      "anonymous": false,
      "inputs": [
        {
          "indexed": true,
          "internalType": "address",
          "name": "token",
          "type": "address"
        },
        {
          "indexed": true,
          "internalType": "address",
          "name": "holder",
          "type": "address"
        },
        {
          "indexed": false,
          "internalType": "uint256",
          "name": "proofId",
          "type": "uint256"
        }
      ],
      "name": "ProofCreated",
      "type": "event"
    },
    {
      "anonymous": false,
      "inputs": [
        {
          "indexed": true,
          "internalType": "address",
          "name": "token",
          "type": "address"
        },
        {
          "indexed": false,
          "internalType": "uint256",
          "name": "amount",
          "type": "uint256"
        }
      ],
      "name": "Redeem",
      "type": "event"
    },
    {
      "anonymous": false,
      "inputs": [
        {
          "indexed": true,
          "internalType": "address",
          "name": "token",
          "type": "address"
        },
        {
          "indexed": false,
          "internalType": "contract IRule[]",
          "name": "rules",
          "type": "address[]"
        }
      ],
      "name": "RulesDefined",
      "type": "event"
    },
    {
      "anonymous": false,
      "inputs": [
        {
          "indexed": true,
          "internalType": "address",
          "name": "token",
          "type": "address"
        },
        {
          "indexed": false,
          "internalType": "address",
          "name": "account",
          "type": "address"
        },
        {
          "indexed": false,
          "internalType": "uint256",
          "name": "amount",
          "type": "uint256"
        }
      ],
      "name": "Seize",
      "type": "event"
    },
    {
      "anonymous": false,
      "inputs": [
        {
          "indexed": true,
          "internalType": "address",
          "name": "token",
          "type": "address"
        },
        {
          "indexed": false,
          "internalType": "uint256",
          "name": "delegateId",
          "type": "uint256"
        },
        {
          "indexed": false,
          "internalType": "string",
          "name": "name",
          "type": "string"
        },
        {
          "indexed": false,
          "internalType": "string",
          "name": "symbol",
          "type": "string"
        },
        {
          "indexed": false,
          "internalType": "uint256",
          "name": "decimals",
          "type": "uint256"
        }
      ],
      "name": "TokenDefined",
      "type": "event"
    },
    {
      "anonymous": false,
      "inputs": [
        {
          "indexed": true,
          "internalType": "address",
          "name": "token",
          "type": "address"
        }
      ],
      "name": "TokenRemoved",
      "type": "event"
    },
    {
      "constant": false,
      "inputs": [
        {
          "internalType": "address",
          "name": "_sender",
          "type": "address"
        },
        {
          "internalType": "address",
          "name": "_spender",
          "type": "address"
        },
        {
          "internalType": "uint256",
          "name": "_value",
          "type": "uint256"
        }
      ],
      "name": "approve",
      "outputs": [
        {
          "internalType": "bool",
          "name": "",
          "type": "bool"
        }
      ],
      "payable": false,
      "stateMutability": "nonpayable",
      "type": "function"
    },
    {
      "constant": true,
      "inputs": [
        {
          "internalType": "address",
          "name": "_sender",
          "type": "address"
        },
        {
          "internalType": "address",
          "name": "_receiver",
          "type": "address"
        },
        {
          "internalType": "uint256",
          "name": "_value",
          "type": "uint256"
        }
      ],
      "name": "canTransfer",
      "outputs": [
        {
          "internalType": "enum TokenStorage.TransferCode",
          "name": "",
          "type": "uint8"
        }
      ],
      "payable": false,
      "stateMutability": "view",
      "type": "function"
    },
    {
      "constant": true,
      "inputs": [
        {
          "internalType": "address",
          "name": "_address",
          "type": "address"
        }
      ],
      "name": "coreRole",
      "outputs": [
        {
          "internalType": "bytes32",
          "name": "",
          "type": "bytes32"
        }
      ],
      "payable": false,
      "stateMutability": "view",
      "type": "function"
    },
    {
      "constant": false,
      "inputs": [
        {
          "internalType": "address",
          "name": "_token",
          "type": "address"
        },
        {
          "internalType": "address",
          "name": "_holder",
          "type": "address"
        }
      ],
      "name": "createProof",
      "outputs": [
        {
          "internalType": "bool",
          "name": "",
          "type": "bool"
        }
      ],
      "payable": false,
      "stateMutability": "nonpayable",
      "type": "function"
    },
    {
      "constant": false,
      "inputs": [
        {
          "internalType": "address",
          "name": "_sender",
          "type": "address"
        },
        {
          "internalType": "address",
          "name": "_spender",
          "type": "address"
        },
        {
          "internalType": "uint256",
          "name": "_subtractedValue",
          "type": "uint256"
        }
      ],
      "name": "decreaseApproval",
      "outputs": [
        {
          "internalType": "bool",
          "name": "",
          "type": "bool"
        }
      ],
      "payable": false,
      "stateMutability": "nonpayable",
      "type": "function"
    },
    {
      "constant": false,
      "inputs": [
        {
          "internalType": "address",
          "name": "_token",
          "type": "address"
        },
        {
          "internalType": "contract IClaimable[]",
          "name": "_claimables",
          "type": "address[]"
        }
      ],
      "name": "defineClaimables",
      "outputs": [
        {
          "internalType": "bool",
          "name": "",
          "type": "bool"
        }
      ],
      "payable": false,
      "stateMutability": "nonpayable",
      "type": "function"
    },
    {
      "constant": false,
      "inputs": [
        {
          "internalType": "address",
          "name": "_token",
          "type": "address"
        },
        {
          "internalType": "uint256",
          "name": "_startAt",
          "type": "uint256"
        },
        {
          "internalType": "uint256",
          "name": "_endAt",
          "type": "uint256"
        },
        {
          "internalType": "address[]",
          "name": "_exceptions",
          "type": "address[]"
        }
      ],
      "name": "defineLock",
      "outputs": [
        {
          "internalType": "bool",
          "name": "",
          "type": "bool"
        }
      ],
      "payable": false,
      "stateMutability": "nonpayable",
      "type": "function"
    },
    {
      "constant": false,
      "inputs": [
        {
          "internalType": "address",
          "name": "_token",
          "type": "address"
        },
        {
          "internalType": "contract IRule[]",
          "name": "_rules",
          "type": "address[]"
        }
      ],
      "name": "defineRules",
      "outputs": [],
      "payable": false,
      "stateMutability": "nonpayable",
      "type": "function"
    },
    {
      "constant": true,
      "inputs": [
        {
          "internalType": "uint256",
          "name": "",
          "type": "uint256"
        }
      ],
      "name": "delegates",
      "outputs": [
        {
          "internalType": "address",
          "name": "",
          "type": "address"
        }
      ],
      "payable": false,
      "stateMutability": "view",
      "type": "function"
    },
    {
      "constant": false,
      "inputs": [
        {
          "internalType": "address",
          "name": "_token",
          "type": "address"
        }
      ],
      "name": "finishMinting",
      "outputs": [
        {
          "internalType": "bool",
          "name": "",
          "type": "bool"
        }
      ],
      "payable": false,
      "stateMutability": "nonpayable",
      "type": "function"
    },
    {
      "constant": false,
      "inputs": [
        {
          "internalType": "address",
          "name": "_token",
          "type": "address"
        },
        {
          "internalType": "address[]",
          "name": "_addresses",
          "type": "address[]"
        },
        {
          "internalType": "uint256",
          "name": "_until",
          "type": "uint256"
        }
      ],
      "name": "freezeManyAddresses",
      "outputs": [
        {
          "internalType": "bool",
          "name": "",
          "type": "bool"
        }
      ],
      "payable": false,
      "stateMutability": "nonpayable",
      "type": "function"
    },
    {
      "constant": true,
      "inputs": [
        {
          "internalType": "address",
          "name": "_token",
          "type": "address"
        },
        {
          "internalType": "address",
          "name": "_holder",
          "type": "address"
        }
      ],
      "name": "hasClaims",
      "outputs": [
        {
          "internalType": "bool",
          "name": "",
          "type": "bool"
        }
      ],
      "payable": false,
      "stateMutability": "view",
      "type": "function"
    },
    {
      "constant": true,
      "inputs": [
        {
          "internalType": "address",
          "name": "_address",
          "type": "address"
        },
        {
          "internalType": "bytes4",
          "name": "_privilege",
          "type": "bytes4"
        }
      ],
      "name": "hasCorePrivilege",
      "outputs": [
        {
          "internalType": "bool",
          "name": "",
          "type": "bool"
        }
      ],
      "payable": false,
      "stateMutability": "view",
      "type": "function"
    },
    {
      "constant": true,
      "inputs": [
        {
          "internalType": "address",
          "name": "_address",
          "type": "address"
        },
        {
          "internalType": "address",
          "name": "_proxy",
          "type": "address"
        },
        {
          "internalType": "bytes4",
          "name": "_privilege",
          "type": "bytes4"
        }
      ],
      "name": "hasProxyPrivilege",
      "outputs": [
        {
          "internalType": "bool",
          "name": "",
          "type": "bool"
        }
      ],
      "payable": false,
      "stateMutability": "view",
      "type": "function"
    },
    {
      "constant": false,
      "inputs": [
        {
          "internalType": "address",
          "name": "_sender",
          "type": "address"
        },
        {
          "internalType": "address",
          "name": "_spender",
          "type": "address"
        },
        {
          "internalType": "uint256",
          "name": "_addedValue",
          "type": "uint256"
        }
      ],
      "name": "increaseApproval",
      "outputs": [
        {
          "internalType": "bool",
          "name": "",
          "type": "bool"
        }
      ],
      "payable": false,
      "stateMutability": "nonpayable",
      "type": "function"
    },
    {
      "constant": false,
      "inputs": [
        {
          "internalType": "address",
          "name": "_token",
          "type": "address"
        },
        {
          "internalType": "address",
          "name": "_to",
          "type": "address"
        },
        {
          "internalType": "uint256",
          "name": "_amount",
          "type": "uint256"
        }
      ],
      "name": "mint",
      "outputs": [
        {
          "internalType": "bool",
          "name": "",
          "type": "bool"
        }
      ],
      "payable": false,
      "stateMutability": "nonpayable",
      "type": "function"
    },
    {
      "constant": false,
      "inputs": [
        {
          "internalType": "address",
          "name": "_token",
          "type": "address"
        },
        {
          "internalType": "address[]",
          "name": "_recipients",
          "type": "address[]"
        },
        {
          "internalType": "uint256[]",
          "name": "_amounts",
          "type": "uint256[]"
        }
      ],
      "name": "mintAtOnce",
      "outputs": [
        {
          "internalType": "bool",
          "name": "",
          "type": "bool"
        }
      ],
      "payable": false,
      "stateMutability": "nonpayable",
      "type": "function"
    },
    {
      "constant": true,
      "inputs": [],
      "name": "owner",
      "outputs": [
        {
          "internalType": "address",
          "name": "",
          "type": "address"
        }
      ],
      "payable": false,
      "stateMutability": "view",
      "type": "function"
    },
    {
      "constant": true,
      "inputs": [
        {
          "internalType": "address",
          "name": "",
          "type": "address"
        }
      ],
      "name": "proxyDelegates",
      "outputs": [
        {
          "internalType": "address",
          "name": "",
          "type": "address"
        }
      ],
      "payable": false,
      "stateMutability": "view",
      "type": "function"
    },
    {
      "constant": true,
      "inputs": [
        {
          "internalType": "address",
          "name": "_proxy",
          "type": "address"
        },
        {
          "internalType": "address",
          "name": "_address",
          "type": "address"
        }
      ],
      "name": "proxyRole",
      "outputs": [
        {
          "internalType": "bytes32",
          "name": "",
          "type": "bytes32"
        }
      ],
      "payable": false,
      "stateMutability": "view",
      "type": "function"
    },
    {
      "constant": false,
      "inputs": [],
      "name": "renounceOwnership",
      "outputs": [],
      "payable": false,
      "stateMutability": "nonpayable",
      "type": "function"
    },
    {
      "constant": true,
      "inputs": [
        {
          "internalType": "bytes32",
          "name": "_role",
          "type": "bytes32"
        },
        {
          "internalType": "bytes4",
          "name": "_privilege",
          "type": "bytes4"
        }
      ],
      "name": "roleHasPrivilege",
      "outputs": [
        {
          "internalType": "bool",
          "name": "",
          "type": "bool"
        }
      ],
      "payable": false,
      "stateMutability": "view",
      "type": "function"
    },
    {
      "constant": true,
      "inputs": [
        {
          "internalType": "bytes32",
          "name": "_role",
          "type": "bytes32"
        },
        {
          "internalType": "bytes4",
          "name": "_privilege",
          "type": "bytes4"
        }
      ],
      "name": "rolePrivilege",
      "outputs": [
        {
          "internalType": "bool",
          "name": "",
          "type": "bool"
        }
      ],
      "payable": false,
      "stateMutability": "view",
      "type": "function"
    },
    {
      "constant": false,
      "inputs": [
        {
          "internalType": "address",
          "name": "_token",
          "type": "address"
        },
        {
          "internalType": "address",
          "name": "_account",
          "type": "address"
        },
        {
          "internalType": "uint256",
          "name": "_amount",
          "type": "uint256"
        }
      ],
      "name": "seize",
      "outputs": [
        {
          "internalType": "bool",
          "name": "",
          "type": "bool"
        }
      ],
      "payable": false,
      "stateMutability": "nonpayable",
      "type": "function"
    },
    {
      "constant": false,
      "inputs": [
        {
          "internalType": "address",
          "name": "_sender",
          "type": "address"
        },
        {
          "internalType": "address",
          "name": "_receiver",
          "type": "address"
        },
        {
          "internalType": "uint256",
          "name": "_value",
          "type": "uint256"
        }
      ],
      "name": "transfer",
      "outputs": [
        {
          "internalType": "bool",
          "name": "",
          "type": "bool"
        }
      ],
      "payable": false,
      "stateMutability": "nonpayable",
      "type": "function"
    },
    {
      "constant": false,
      "inputs": [
        {
          "internalType": "address",
          "name": "_caller",
          "type": "address"
        },
        {
          "internalType": "address",
          "name": "_sender",
          "type": "address"
        },
        {
          "internalType": "address",
          "name": "_receiver",
          "type": "address"
        },
        {
          "internalType": "uint256",
          "name": "_value",
          "type": "uint256"
        }
      ],
      "name": "transferFrom",
      "outputs": [
        {
          "internalType": "bool",
          "name": "",
          "type": "bool"
        }
      ],
      "payable": false,
      "stateMutability": "nonpayable",
      "type": "function"
    },
    {
      "constant": false,
      "inputs": [
        {
          "internalType": "address",
          "name": "_newOwner",
          "type": "address"
        }
      ],
      "name": "transferOwnership",
      "outputs": [],
      "payable": false,
      "stateMutability": "nonpayable",
      "type": "function"
    },
    {
      "constant": true,
      "inputs": [
        {
          "internalType": "address",
          "name": "_token",
          "type": "address"
        },
        {
          "internalType": "address",
          "name": "_address",
          "type": "address"
        }
      ],
      "name": "validateAddress",
      "outputs": [
        {
          "internalType": "bool",
          "name": "",
          "type": "bool"
        }
      ],
      "payable": false,
      "stateMutability": "view",
      "type": "function"
    },
    {
      "constant": true,
      "inputs": [
        {
          "internalType": "address",
          "name": "_from",
          "type": "address"
        },
        {
          "internalType": "address",
          "name": "_to",
          "type": "address"
        },
        {
          "internalType": "uint256",
          "name": "_amount",
          "type": "uint256"
        }
      ],
      "name": "validateTransfer",
      "outputs": [
        {
          "internalType": "bool",
          "name": "",
          "type": "bool"
        }
      ],
      "payable": false,
      "stateMutability": "view",
      "type": "function"
    }
  ],
  "bytecode": "0x6080604052600080546001600160a01b0319163317905561367f806100256000396000f3fe608060405234801561001057600080fd5b50600436106101cf5760003560e01c8063afd5b0c711610104578063c6946a12116100a2578063e46638e611610071578063e46638e61461091c578063f019c26714610976578063f2fde38b146109ac578063f597be9f146109d2576101cf565b8063c6946a121461084d578063c6c3bbe614610883578063d5e444f6146108b9578063e1f21c67146108e6576101cf565b8063b5fa1310116100de578063b5fa131014610795578063bcdd6121146107bb578063beabacc8146107f1578063c4697c2114610827576101cf565b8063afd5b0c71461070c578063b1548afc14610742578063b2a02ff11461075f576101cf565b806368da830c116101715780638c677bac1161014b5780638c677bac1461064d5780638da5cb5b1461067a5780638eea48551461069e5780639cf8c32a146106cc576101cf565b806368da830c146105de578063715018a61461061f5780637619220014610627576101cf565b80632b687519116101ad5780632b687519146103965780633e092f561461044b57806346db70fb1461058257806349616d79146105b0576101cf565b806315dacbea146101d4578063198cea23146102245780632719390d146102e3575b600080fd5b610210600480360360808110156101ea57600080fd5b506001600160a01b03813581169160208101358216916040820135169060600135610a87565b604080519115158252519081900360200190f35b6102106004803603608081101561023a57600080fd5b6001600160a01b03823516916020810135916040820135919081019060808101606082013564010000000081111561027157600080fd5b82018360208201111561028357600080fd5b803590602001918460208302840111640100000000831117156102a557600080fd5b919080806020026020016040519081016040528093929190818152602001838360200280828437600092019190915250929550610aa7945050505050565b610210600480360360408110156102f957600080fd5b6001600160a01b03823516919081019060408101602082013564010000000081111561032457600080fd5b82018360208201111561033657600080fd5b8035906020019184602083028401116401000000008311171561035857600080fd5b919080806020026020016040519081016040528093929190818152602001838360200280828437600092019190915250929550610c18945050505050565b610449600480360360408110156103ac57600080fd5b6001600160a01b0382351691908101906040810160208201356401000000008111156103d757600080fd5b8201836020820111156103e957600080fd5b8035906020019184602083028401116401000000008311171561040b57600080fd5b919080806020026020016040519081016040528093929190818152602001838360200280828437600092019190915250929550610cd0945050505050565b005b6102106004803603606081101561046157600080fd5b6001600160a01b03823516919081019060408101602082013564010000000081111561048c57600080fd5b82018360208201111561049e57600080fd5b803590602001918460208302840111640100000000831117156104c057600080fd5b919080806020026020016040519081016040528093929190818152602001838360200280828437600092019190915250929594936020810193503591505064010000000081111561051057600080fd5b82018360208201111561052257600080fd5b8035906020019184602083028401116401000000008311171561054457600080fd5b919080806020026020016040519081016040528093929190818152602001838360200280828437600092019190915250929550610d83945050505050565b6102106004803603604081101561059857600080fd5b506001600160a01b0381358116916020013516610ea4565b610210600480360360408110156105c657600080fd5b506001600160a01b0381358116916020013516610ff9565b610210600480360360608110156105f457600080fd5b5080356001600160a01b0390811691602081013590911690604001356001600160e01b031916611130565b6104496111ee565b6102106004803603602081101561063d57600080fd5b50356001600160a01b031661128b565b6102106004803603604081101561066357600080fd5b50803590602001356001600160e01b03191661133c565b610682611368565b604080516001600160a01b039092168252519081900360200190f35b610210600480360360408110156106b457600080fd5b506001600160a01b0381358116916020013516611377565b6106fa600480360360408110156106e257600080fd5b506001600160a01b03813581169160200135166114f7565b60408051918252519081900360200190f35b6102106004803603604081101561072257600080fd5b5080356001600160a01b031690602001356001600160e01b031916611527565b6106826004803603602081101561075857600080fd5b5035611589565b6102106004803603606081101561077557600080fd5b506001600160a01b038135811691602081013590911690604001356115b0565b610682600480360360208110156107ab57600080fd5b50356001600160a01b03166117cd565b610210600480360360608110156107d157600080fd5b506001600160a01b038135811691602081013590911690604001356117e8565b6102106004803603606081101561080757600080fd5b506001600160a01b0381358116916020810135909116906040013561190b565b6106fa6004803603602081101561083d57600080fd5b50356001600160a01b031661191e565b6102106004803603606081101561086357600080fd5b506001600160a01b0381358116916020810135909116906040013561193d565b6102106004803603606081101561089957600080fd5b506001600160a01b03813581169160208101359091169060400135611a89565b610210600480360360408110156108cf57600080fd5b50803590602001356001600160e01b031916611c7b565b610210600480360360608110156108fc57600080fd5b506001600160a01b03813581169160208101359091169060400135611cc3565b6109526004803603606081101561093257600080fd5b506001600160a01b03813581169160208101359091169060400135611d45565b6040518082600881111561096257fe5b60ff16815260200191505060405180910390f35b6102106004803603606081101561098c57600080fd5b506001600160a01b03813581169160208101359091169060400135611d5d565b610449600480360360208110156109c257600080fd5b50356001600160a01b0316611edf565b610210600480360360608110156109e857600080fd5b6001600160a01b038235169190810190604081016020820135640100000000811115610a1357600080fd5b820183602082011115610a2557600080fd5b80359060200191846020830284011164010000000083111715610a4757600080fd5b9190808060200260200160405190810160405280939291908181526020018383602002808284376000920191909152509295505091359250611f33915050565b6000610a9e610a993387878787612001565b6120a0565b95945050505050565b6000828410610ae5576040805162461bcd60e51b81526020600482015260056024820152644c5444303160d81b604482015290519081900360640190fd5b60408051808201825285815260208082018681526001600160a01b038916600090815260059092529281209151600c83019081559251600d909201919091555b8351811015610b7c576001826002016000868481518110610b4257fe5b6020908102919091018101516001600160a01b03168252810191909152604001600020805460ff1916911515919091179055600101610b25565b50856001600160a01b03167fb3cc89e5de56b7ebabf2018f23cc35704776aaf41e6c19605afbb3bd09a7af1c8686866040518084815260200183815260200180602001828103825283818151815260200191508051906020019060200280838360005b83811015610bf7578181015183820152602001610bdf565b5050505090500194505050505060405180910390a250600195945050505050565b6001600160a01b038216600090815260056020908152604082208351610c469260109092019185019061341f565b50826001600160a01b03167f132afb2066cc1ae59ec3e3a400b2792022df86f730baa112e07efa5c51ac78f1836040518080602001828103825283818151815260200191508051906020019060200280838360005b83811015610cb3578181015183820152602001610c9b565b505050509050019250505060405180910390a25060015b92915050565b6001600160a01b03821660009081526005602090815260409091208251610cff92600f9092019184019061341f565b50816001600160a01b03167f09533a2e3942213d1aaa69c27b5a0c5e8181c0d45f9826440725b842ec3c210d826040518080602001828103825283818151815260200191508051906020019060200280838360005b83811015610d6c578181015183820152602001610d54565b505050509050019250505060405180910390a25050565b6001600160a01b038316600090815260056020526040812060060154849060ff1615610ddf576040805162461bcd60e51b8152602060048083019190915260248201526326aa181960e11b604482015290519081900360640190fd5b8251845114610e37576040805162461bcd60e51b8152602060048083019190915260248201527f4d54303300000000000000000000000000000000000000000000000000000000604482015290519081900360640190fd5b600160005b8551811015610e8857818015610e7e5750610e7e87878381518110610e5d57fe5b6020026020010151878481518110610e7157fe5b6020026020010151611a89565b9150600101610e3c565b50808015610e9a5750610e9a8661128b565b9695505050505050565b6001600160a01b038281166000818152600560208181526040808420958716808552600a870183528185208054835160608101855260048a0186528488205481529787526006855283872087805285528387209287529190940183528185205468010000000000000000900467ffffffffffffffff16928601929092529294919390928491908101610f346120f1565b67ffffffffffffffff908116909152825460018181018555600094855260209485902084516002909302019182558484015191018054604094850151841668010000000000000000026fffffffffffffffff0000000000000000199390941667ffffffffffffffff199091161791909116919091179055805184815290516001600160a01b0380891693908a16927ffe25a4bc47ccc081c166e1c8bfb73f75034bbc8846d88ddd5bf0ce66c5baa0ac929081900390910190a350600195945050505050565b6001600160a01b0382166000908152600560209081526040808320600f01805482518185028101850190935280835260609383018282801561106457602002820191906000526020600020905b81546001600160a01b03168152600190910190602001808311611046575b50939450600093505050505b81518110156111255781818151811061108557fe5b60200260200101516001600160a01b031663cf31ff86856040518263ffffffff1660e01b815260040180826001600160a01b03166001600160a01b0316815260200191505060206040518083038186803b1580156110e257600080fd5b505afa1580156110f6573d6000803e3d6000fd5b505050506040513d602081101561110c57600080fd5b505161111d57600092505050610cca565b600101611070565b506001949350505050565b6001600160a01b03808416600090815260036020908152604080832093861683526001840190915281205490919082906111855769416c6c50726f7869657360009081526001830160205260409020546111a1565b6001600160a01b03851660009081526001830160205260409020545b90506c416c6c50726976696c6567657360981b811480610e9a575060009081526004602090815260408083206001600160e01b03198716845290915290205460ff169150505b9392505050565b6000546001600160a01b03163314611236576040805162461bcd60e51b815260206004808301919091526024820152634f57303160e01b604482015290519081900360640190fd5b600080546040516001600160a01b03909116917ff8df31144d9c2f0f6b59d69b8b98abd5459d07f2742c4df920b25aae33c6482091a26000805473ffffffffffffffffffffffffffffffffffffffff19169055565b6001600160a01b038116600090815260056020526040812060060154829060ff16156112e7576040805162461bcd60e51b8152602060048083019190915260248201526326aa181960e11b604482015290519081900360640190fd5b6001600160a01b038316600081815260056020526040808220600601805460ff19166001179055517f39b5ca6d4234a87b875f701a848e24d718e9f824d12099eec3c01762383b04ee9190a250600192915050565b60009182526004602090815260408084206001600160e01b031993909316845291905290205460ff1690565b6000546001600160a01b031681565b6001600160a01b038281166000818152600660209081526040808320838052825280832094861683526005948501825280832054938352938152838220601001805485518184028101840190965280865292946801000000000000000090940467ffffffffffffffff1693606093909283018282801561142057602002820191906000526020600020905b81546001600160a01b03168152600190910190602001808311611402575b50939450600093505050505b81518110156114eb5781818151811061144157fe5b60200260200101516001600160a01b031663f63ae8f386856040518363ffffffff1660e01b815260040180836001600160a01b03166001600160a01b031681526020018281526020019250505060206040518083038186803b1580156114a657600080fd5b505afa1580156114ba573d6000803e3d6000fd5b505050506040513d60208110156114d057600080fd5b5051156114e35760019350505050610cca565b60010161142c565b50600095945050505050565b6001600160a01b038082166000908152600360209081526040808320938616835260019093019052205492915050565b6001600160a01b0382166000908152600360205260408120546c416c6c50726976696c6567657360981b811480611581575060008181526004602090815260408083206001600160e01b03198716845290915290205460ff165b949350505050565b6002818154811061159657fe5b6000918252602090912001546001600160a01b0316905081565b60006001600160a01b038316331415611612576040805162461bcd60e51b8152602060048083019190915260248201527f5354303200000000000000000000000000000000000000000000000000000000604482015290519081900360640190fd5b6001600160a01b03808516600090815260056020908152604080832093871683526004840190915290205461164d908463ffffffff6120f616565b6001600160a01b0385166000908152600483016020526040808220929092553381522054611681908463ffffffff61210816565b336000818152600480850160209081526040808420959095556009860180548901905584516323de665160e01b81526001600160a01b038a8116938201939093526024810194909452604484018890529351908916936323de665193606480820194929392918390030190829087803b1580156116fd57600080fd5b505af1158015611711573d6000803e3d6000fd5b505050506040513d602081101561172757600080fd5b505161177c576040805162461bcd60e51b8152602060048083019190915260248201527f5354303100000000000000000000000000000000000000000000000000000000604482015290519081900360640190fd5b604080516001600160a01b038681168252602082018690528251908816927f9e2db63c5a9dc5d08222447d76570029e4f2f3074c8aa4f1c511fa658506c710928290030190a2506001949350505050565b6001602052600090815260409020546001600160a01b031681565b3360009081526005602081815260408084206001600160a01b038881168652938101835281852093871685529290915282205461182b908463ffffffff61210816565b6001600160a01b0386811660008181526005850160209081526040808320948a168084529482528083208690558051630ad0fe5760e31b815260048101949094526024840194909452604483019490945291513393635687f2b8936064808501949293928390030190829087803b1580156118a557600080fd5b505af11580156118b9573d6000803e3d6000fd5b505050506040513d60208110156118cf57600080fd5b5051611125576040805162461bcd60e51b815260206004808301919091526024820152635444303360e01b604482015290519081900360640190fd5b6000611581610a99336000878787612001565b6001600160a01b0381166000908152600360205260409020545b919050565b336000908152600560209081526040808320600f01805482518185028101850190935280835260609383018282801561199f57602002820191906000526020600020905b81546001600160a01b03168152600190910190602001808311611981575b50939450600093505050505b8151811015611a7d578181815181106119c057fe5b602090810291909101810151604080517f40ecb7f20000000000000000000000000000000000000000000000000000000081526001600160a01b038a81166004830152898116602483015260448201899052915191909216926340ecb7f29260648082019391829003018186803b158015611a3a57600080fd5b505afa158015611a4e573d6000803e3d6000fd5b505050506040513d6020811015611a6457600080fd5b5051611a75576000925050506111e7565b6001016119ab565b50600195945050505050565b6001600160a01b038316600090815260056020526040812060060154849060ff1615611ae5576040805162461bcd60e51b8152602060048083019190915260248201526326aa181960e11b604482015290519081900360640190fd5b6001600160a01b03851660009081526005602052604090206003810154611b12908563ffffffff61210816565b60038201556001600160a01b0385166000908152600482016020526040902054611b42908563ffffffff61210816565b6001600160a01b0380871660008181526004808601602090815260408084209690965585516323de665160e01b81529182018390526024820193909352604481018990529351928a16936323de6651936064808301949391928390030190829087803b158015611bb157600080fd5b505af1158015611bc5573d6000803e3d6000fd5b505050506040513d6020811015611bdb57600080fd5b5051611c30576040805162461bcd60e51b8152602060048083019190915260248201527f4d54303100000000000000000000000000000000000000000000000000000000604482015290519081900360640190fd5b6040805185815290516001600160a01b038816917f0f6798a560793a54c3bcfe86a93cde1e73087d944c0ea20544137d4121396885919081900360200190a250600195945050505050565b60006c416c6c50726976696c6567657360981b8314806111e757505060009182526004602090815260408084206001600160e01b031993909316845291905290205460ff1690565b3360008181526005602081815260408084206001600160a01b0389811680875294820184528286209089168087529084528286208890558251630ad0fe5760e31b815260048101959095526024850152604484018790529051939490939092635687f2b892606480830193919282900301818887803b1580156118a557600080fd5b6000611581611d58336000878787612001565b612115565b3360009081526005602081815260408084206001600160a01b038881168652938101835281852093871685529290915282205480841115611dc7576001600160a01b0380871660009081526005840160209081526040808320938916835292905290812055611e00565b611dd7818563ffffffff6120f616565b6001600160a01b0380881660009081526005850160209081526040808320938a16835292905220555b6001600160a01b0386811660008181526005850160209081526040808320948a16808452948252808320548151630ad0fe5760e31b815260048101959095526024850195909552604484019490945292513393635687f2b893606480820194929392918390030190829087803b158015611e7957600080fd5b505af1158015611e8d573d6000803e3d6000fd5b505050506040513d6020811015611ea357600080fd5b5051611a7d576040805162461bcd60e51b815260206004808301919091526024820152635444303360e01b604482015290519081900360640190fd5b6000546001600160a01b03163314611f27576040805162461bcd60e51b815260206004808301919091526024820152634f57303160e01b604482015290519081900360640190fd5b611f3081612138565b50565b6001600160a01b0383166000908152600560205260408120600b01815b8451811015611a7d5783826000878481518110611f6957fe5b60200260200101516001600160a01b03166001600160a01b03168152602001908152602001600020819055507ff97a274face0b5517365ad396b1fdba6f68bd3135ef603e44272adba3af5a1e0858281518110611fc257fe5b60200260200101518560405180836001600160a01b03166001600160a01b031681526020018281526020019250505060405180910390a1600101611f50565b612009613491565b50604080516000808252610200820183526001600160a01b039788166020830190815296881692820192909252938616606085015291909416608083015260a0820181905260c0820182905260e08201819052610100820181905261012082018290526101408201819052610160820181905261018082018290526101a082018190526101c08201939093526101e0019190915290565b60006120af82604001516121fd565b6120e8576040805162461bcd60e51b81526020600482015260056024820152644c5444303160d81b604482015290519081900360640190fd5b610cca82612253565b425b90565b60008282111561210257fe5b50900390565b81810182811015610cca57fe5b600061212482604001516121fd565b61212f576005610cca565b610cca826122c1565b6001600160a01b038116612195576040805162461bcd60e51b8152602060048083019190915260248201527f4f57303200000000000000000000000000000000000000000000000000000000604482015290519081900360640190fd5b600080546040516001600160a01b03808516939216917f8be0079c531659141344cd1fd0a4f28419497f9722a3daafe3b4186f6b6457e091a36000805473ffffffffffffffffffffffffffffffffffffffff19166001600160a01b0392909216919091179055565b336000908152600560205260408120600d810154600c909101904290811015806122275750815481105b8061158157506001600160a01b038416600090815260028301602052604090205460ff16949350505050565b6000612267826040015183606001516122e9565b6122b8576040805162461bcd60e51b815260206004820152600560248201527f4654443031000000000000000000000000000000000000000000000000000000604482015290519081900360640190fd5b610cca82612357565b60006122d5826040015183606001516122e9565b6122e0576006610cca565b610cca826123d0565b336000908152600560209081526040808320600b019182905282205442908111801561232c57506001600160a01b03851660009081526020839052604090205481115b8015610a9e57506001600160a01b038416600090815260208390526040902054811195945050505050565b600081604001518260600151836101a0015161237483838361193d565b6123c7576040805162461bcd60e51b8152602060048083019190915260248201527f5752303200000000000000000000000000000000000000000000000000000000604482015290519081900360640190fd5b610a9e85612404565b604081015160608201516101a083015160009291906123f083838361193d565b6123fb576007610a9e565b610a9e8561246b565b600061240f8261248a565b612462576040805162461bcd60e51b8152602060048083019190915260248201527f4c52303100000000000000000000000000000000000000000000000000000000604482015290519081900360640190fd5b610cca82612554565b60006124768261248a565b612481576008610cca565b610cca826125a5565b3060009081526006602090815260408083208380528252808320848201516001600160a01b031684529182905282205460ff166124cb576001915050611938565b6124d483612636565b6101408301511561254b576124e8836127de565b6101c08301511561254b57610140830151600090815260048201602052604090206101608401518051600190811061251c57fe5b6020026020010151612540856101c00151836002015461210890919063ffffffff16565b111592505050611938565b50600092915050565b6000612564338360400151611377565b1561257957612577338360400151610ea4565b505b612587338360600151611377565b1561259c5761259a338360600151610ea4565b505b610cca82612b26565b80516001600160a01b039081166000908152600560205260408082209084015160608501516101a086015193949293919290919083166125ec576002945050505050611938565b6001600160a01b038216612607576003945050505050611938565b6001600160a01b0383166000908152600485016020526040902054811115611a7d576004945050505050611938565b806101800151611f30576007546060820151604080517f9770cc4d0000000000000000000000000000000000000000000000000000000081526001600160a01b038381166004830190815260248301938452600a8054604485018190529290961695639770cc4d959490939192909160640190849080156126d657602002820191906000526020600020905b8154815260200190600101908083116126c2575b5050935050505060006040518083038186803b1580156126f557600080fd5b505afa158015612709573d6000803e3d6000fd5b505050506040513d6000823e601f3d908101601f19168201604090815281101561273257600080fd5b81516020830180516040519294929383019291908464010000000082111561275957600080fd5b90830190602082018581111561276e57600080fd5b825186602082028301116401000000008211171561278b57600080fd5b82525081516020918201928201910280838360005b838110156127b85781810151838201526020016127a0565b505050509190910160405250505050610160830152610140820152600161018082015250565b6101a08101516101c08201511580156127f657508015155b15612b2257612803613531565b82516001600160a01b03166000908152600560209081526040918290208251815460026001821615610100026000190190911604601f8101849004909302810161018090810190945261016081018381529093919284928491908401828280156128ae5780601f10612883576101008083540402835291602001916128ae565b820191906000526020600020905b81548152906001019060200180831161289157829003601f168201915b50505050508152602001600182018054600181600116156101000203166002900480601f0160208091040260200160405190810160405280929190818152602001828054600181600116156101000203166002900480156129505780601f1061292557610100808354040283529160200191612950565b820191906000526020600020905b81548152906001019060200180831161293357829003601f168201915b505050918352505060028201546020808301919091526003830154604080840191909152600684015460ff161515606084015260078401546080840152600884015460a0840152600984015460c084015280518082018252600c8501548152600d8501548184015260e0840152600f84018054825181850281018501909352808352610100909401939192909190830182828015612a1757602002820191906000526020600020905b81546001600160a01b031681526001909101906020018083116129f9575b5050505050815260200160108201805480602002602001604051908101604052809291908181526020018280548015612a7957602002820191906000526020600020905b81546001600160a01b03168152600190910190602001808311612a5b575b50505091909252505060085460208301519293506001600160a01b03169163ffee0cbb91508490612aa990612b57565b6009546040518463ffffffff1660e01b815260040180848152602001838152602001828152602001935050505060206040518083038186803b158015612aee57600080fd5b505afa158015612b02573d6000803e3d6000fd5b505050506040513d6020811015612b1857600080fd5b50516101c0840152505b5050565b6000612b3182612bba565b15612b4f57612b4782612b42612eef565b613033565b506001611938565b506000919050565b6000602082511115612bb2576040805162461bcd60e51b8152602060048083019190915260248201527f4243303200000000000000000000000000000000000000000000000000000000604482015290519081900360640190fd5b506020015190565b80516001600160a01b039081166000908152600560209081526040808320918501519085015160608601516101a0870151949593949293919290918316612c4a576040805162461bcd60e51b8152602060048083019190915260248201527f5444303100000000000000000000000000000000000000000000000000000000604482015290519081900360640190fd5b6001600160a01b0383166000908152600486016020526040902054811115612cbb576040805162461bcd60e51b8152602060048083019190915260248201527f5444303200000000000000000000000000000000000000000000000000000000604482015290519081900360640190fd5b6001600160a01b03841615612da9576001600160a01b038084166000908152600587016020908152604080832093881683529290522054811115612d48576040805162461bcd60e51b8152602060048083019190915260248201527f5444303400000000000000000000000000000000000000000000000000000000604482015290519081900360640190fd5b6001600160a01b038084166000908152600587016020908152604080832093881683529290522054612d80908263ffffffff6120f616565b6001600160a01b0380851660009081526005880160209081526040808320938916835292905220555b6001600160a01b0383166000908152600486016020526040902054612dd4908263ffffffff6120f616565b6001600160a01b0380851660009081526004880160205260408082209390935590841681522054612e0b908263ffffffff61210816565b6001600160a01b0380841660008181526004808a01602090815260408084209690965585516323de665160e01b815294891691850191909152602484019290925260448301859052925133936323de6651936064808201949392918390030190829087803b158015612e7c57600080fd5b505af1158015612e90573d6000803e3d6000fd5b505050506040513d6020811015612ea657600080fd5b5051612ee2576040805162461bcd60e51b815260206004808301919091526024820152635444303360e01b604482015290519081900360640190fd5b5060019695505050505050565b6040805160028082526060828101909352829190816020015b612f10613593565b815260200190600190039081612f08575050604080516101a0810182526000808252600160208301819052928201819052606082018390526080820181905260a0820183905260c0820181905260e082018190526101008201819052610120820181905261014082018190526101608201819052610180820192909252825192935091839190612f9c57fe5b602090810291909101810191909152604080516101a08101825260008082529281018390529081018290526060810182905260016080820181905260a0820183905260c0820183905260e082018390526101008201819052610120820183905261014082018390526101608201839052610180820192909252825190918391811061302357fe5b6020908102919091010152905090565b60005b815181101561320757613047613593565b82828151811061305357fe5b60200260200101519050600081602001516130865784516001600160a01b03166000908152600660205260409020613096565b3060009081526006602052604090205b825160009081526020919091526040902060a083015190915080156130d657506040808601516001600160a01b031660009081526020839052205460ff16155b156130e25750506131ff565b8160c001518015613110575060608501516001600160a01b031660009081526020829052604090205460ff16155b1561311c5750506131ff565b8160400151156131425761313481600101838761320c565b613142816001018387613316565b8160600151156131a25760e0850151156131765760e08501516000908152600482016020526040902061317690838761320c565b610140850151156131a257610140850151600090815260048201602052604090206131a2908387613316565b8160800151156131fc576040808601516001600160a01b0316600090815260058301602052206131d390838761320c565b60608501516001600160a01b0316600090815260058201602052604090206131fc908387613316565b50505b600101613036565b505050565b60006132166120f1565b90508260e0015180156132325750835467ffffffffffffffff16155b1561325357835467ffffffffffffffff191667ffffffffffffffff82161784555b8261010001511561328d5783546fffffffffffffffff000000000000000019166801000000000000000067ffffffffffffffff8316021784555b826101200151156132de5783547fffffffffffffffff0000000000000000ffffffffffffffffffffffffffffffff1670010000000000000000000000000000000067ffffffffffffffff8316021784555b826101600151156133105782602001516132fd57816101a00151613304565b816101c001515b60018501805490910190555b50505050565b60006133206120f1565b90508260e00151801561333c5750835467ffffffffffffffff16155b1561335d57835467ffffffffffffffff191667ffffffffffffffff82161784555b826101000151156133975783546fffffffffffffffff000000000000000019166801000000000000000067ffffffffffffffff8316021784555b826101400151156133e857835477ffffffffffffffffffffffffffffffffffffffffffffffff16780100000000000000000000000000000000000000000000000067ffffffffffffffff8316021784555b8261018001511561331057826020015161340757816101a0015161340e565b816101c001515b600285018054909101905550505050565b828054828255906000526020600020908101928215613481579160200282015b82811115613481578251825473ffffffffffffffffffffffffffffffffffffffff19166001600160a01b0390911617825560209092019160019091019061343f565b5061348d9291506135ff565b5090565b604051806101e0016040528060006001600160a01b0316815260200160006001600160a01b0316815260200160006001600160a01b0316815260200160006001600160a01b0316815260200160008152602001606081526020016000151581526020016000815260200160608152602001600015158152602001600081526020016060815260200160001515815260200160008152602001600081525090565b6040518061016001604052806060815260200160608152602001600081526020016000815260200160001515815260200160008152602001600081526020016000815260200161357f613630565b815260200160608152602001606081525090565b604080516101a081018252600080825260208201819052918101829052606081018290526080810182905260a0810182905260c0810182905260e08101829052610100810182905261012081018290526101408101829052610160810182905261018081019190915290565b6120f391905b8082111561348d57805473ffffffffffffffffffffffffffffffffffffffff19168155600101613605565b60405180604001604052806000815260200160008152509056fea265627a7a723158208bcc4c8d73ebba0ff193155e2df6ed3966c72951e7e79851f1ba748209770bd964736f6c634300050c0032",
  "source": "pragma solidity >=0.5.0 <0.6.0;\n\nimport \"./delegate/MintableTokenDelegate.sol\";\nimport \"./delegate/CLayerTokenDelegate.sol\";\n\n/**\n * @title Token Delegate\n * @dev Token Delegate\n * @author Cyril Lapinte - <cyril.lapinte@openfiz.com>\n */\ncontract TokenDelegate is CLayerTokenDelegate, MintableTokenDelegate {\n  /**\n   * @dev default audit data config\n   */\n  function auditConfigs() internal pure returns (AuditConfig[] memory) {\n    AuditConfig[] memory auditConfigs_ = new AuditConfig[](2);\n    auditConfigs_[0] = AuditConfig(\n      0, true, // scopeId\n      false, true, false, // userData\n      true, false, // selectorSender\n      false, false, false, false, false, true // only cumulated reception\n    );\n    auditConfigs_[1] = AuditConfig(\n      0, false, // scopeId\n      false, false, true, // addressData\n      false, false, // selectorSender\n      false, true, false, false, false, false // last transaction\n    );\n    return auditConfigs_;\n  }\n}\n",
  "sourcePath": "/home/benjamin/work/clayer/contracts/c-layer-core/contracts/TokenDelegate.sol",
  "compiler": {
    "name": "solc",
    "version": "0.5.12+commit.7709ece9.Emscripten.clang"
  },
  "schemaVersion": "3.0.23",
  "updatedAt": "2020-03-14T17:10:02.728Z",
  "devdoc": {
    "author": "Cyril Lapinte - <cyril.lapinte@openfiz.com>",
    "details": "Token Delegate",
    "methods": {
      "approve(address,address,uint256)": {
        "details": "approve"
      },
      "canTransfer(address,address,uint256)": {
        "details": "can transfer"
      },
      "coreRole(address)": {
        "details": "core role",
        "params": {
          "_address": "operator address"
        }
      },
      "decreaseApproval(address,address,uint256)": {
        "details": "decrease approval"
      },
      "defineClaimables(address,address[])": {
        "details": "define claimables contract to this token"
      },
      "defineLock(address,uint256,uint256,address[])": {
        "details": "define lock"
      },
      "defineRules(address,address[])": {
        "details": "Define rules to the token"
      },
      "finishMinting(address)": {
        "details": "Function to stop minting new tokens.",
        "return": "True if the operation was successful."
      },
      "freezeManyAddresses(address,address[],uint256)": {
        "details": "allow owner to freeze several addresses",
        "params": {
          "_until": "allows to auto unlock if the frozen time is known initially. otherwise infinity can be used"
        }
      },
      "hasClaims(address,address)": {
        "details": "Returns true if there are any claimables associated to this token to be made at this time for the _holderthe claimables array is unbounded and each claims may have a complex gas cost estimate. Therefore it is left to the token operators to ensure that the token remains always operable with a transfer and transferFrom gas cost reasonable."
      },
      "hasCorePrivilege(address,bytes4)": {
        "details": "hasCorePrivilege",
        "params": {
          "_address": "operator address"
        }
      },
      "hasProxyPrivilege(address,address,bytes4)": {
        "details": "hasProxyPrivilegethe default proxy role can be set with proxy address(0)",
        "params": {
          "_address": "operator address"
        }
      },
      "increaseApproval(address,address,uint256)": {
        "details": "increase approval"
      },
      "mint(address,address,uint256)": {
        "details": "Function to mint tokens",
        "params": {
          "_amount": "The amount of tokens to mint.",
          "_to": "The address that will receive the minted tokens."
        },
        "return": "A boolean that indicates if the operation was successful."
      },
      "mintAtOnce(address,address[],uint256[])": {
        "details": "Function to mint all tokens at once",
        "params": {
          "_amounts": "The amounts of tokens to mint.",
          "_recipients": "The addresses that will receive the minted tokens."
        },
        "return": "A boolean that indicates if the operation was successful."
      },
      "proxyRole(address,address)": {
        "details": "proxy role",
        "params": {
          "_address": "operator address"
        }
      },
      "renounceOwnership()": {
        "details": "Allows the current owner to relinquish control of the contract."
      },
      "roleHasPrivilege(bytes32,bytes4)": {
        "details": "roleHasPrivilege"
      },
      "rolePrivilege(bytes32,bytes4)": {
        "details": "has role privilegelow level access to role privilegeignores ALL_PRIVILEGES role"
      },
      "seize(address,address,uint256)": {
        "details": "called by the owner to seize value from the account"
      },
      "transfer(address,address,uint256)": {
        "details": "Overriden transfer function"
      },
      "transferFrom(address,address,address,uint256)": {
        "details": "Overriden transferFrom function"
      },
      "transferOwnership(address)": {
        "details": "Allows the current owner to transfer control of the contract to a newOwner.",
        "params": {
          "_newOwner": "The address to transfer ownership to."
        }
      },
      "validateAddress(address,address)": {
        "details": "Check if the rules are valid for an addressthe rules array is unbounded and each claims may have a complex gas cost estimate. Therefore it is left to the token operators to ensure that the token remains always operable with a transfer and transferFrom gas cost reasonable."
      },
      "validateTransfer(address,address,uint256)": {
        "details": "Check if the rules are valid"
      }
    },
    "title": "Token Delegate"
  },
  "userdoc": {
    "methods": {
      "defineClaimables(address,address[])": {
        "notice": "Beware do not add too many claimables as gas used infor transfer will add up through hasClaims calls"
      }
    }
  }
}