{
  "contractName": "TokenFactory",
  "abi": [
    {
      "inputs": [
        {
          "internalType": "address",
          "name": "_core",
          "type": "address"
        }
      ],
      "payable": false,
      "stateMutability": "nonpayable",
      "type": "constructor"
    },
    {
      "anonymous": false,
      "inputs": [
        {
          "indexed": false,
          "internalType": "address",
          "name": "token",
          "type": "address"
        },
        {
          "indexed": false,
          "internalType": "address",
          "name": "spender",
          "type": "address"
        },
        {
          "indexed": false,
          "internalType": "uint256",
          "name": "allowance",
          "type": "uint256"
        }
      ],
      "name": "AllowanceUpdated",
      "type": "event"
    },
    {
      "anonymous": false,
      "inputs": [
        {
          "indexed": false,
          "internalType": "bytes32",
          "name": "codeHash",
          "type": "bytes32"
        }
      ],
      "name": "ProxyCodeDefined",
      "type": "event"
    },
    {
      "anonymous": false,
      "inputs": [
        {
          "indexed": false,
          "internalType": "address",
          "name": "token",
          "type": "address"
        }
      ],
      "name": "TokenDeployed",
      "type": "event"
    },
    {
      "anonymous": false,
      "inputs": [
        {
          "indexed": false,
          "internalType": "address",
          "name": "token",
          "type": "address"
        }
      ],
      "name": "TokenReviewed",
      "type": "event"
    },
    {
      "anonymous": false,
      "inputs": [
        {
          "indexed": false,
          "internalType": "address",
          "name": "token",
          "type": "address"
        },
        {
          "indexed": false,
          "internalType": "address[]",
          "name": "tokensales",
          "type": "address[]"
        }
      ],
      "name": "TokensalesConfigured",
      "type": "event"
    },
    {
      "constant": true,
      "inputs": [],
      "name": "core",
      "outputs": [
        {
          "internalType": "contract IOperableCore",
          "name": "",
          "type": "address"
        }
      ],
      "payable": false,
      "stateMutability": "view",
      "type": "function"
    },
    {
      "constant": true,
      "inputs": [
        {
          "internalType": "address",
          "name": "_operator",
          "type": "address"
        },
        {
          "internalType": "bytes4",
          "name": "_privilege",
          "type": "bytes4"
        }
      ],
      "name": "hasCorePrivilege",
      "outputs": [
        {
          "internalType": "bool",
          "name": "",
          "type": "bool"
        }
      ],
      "payable": false,
      "stateMutability": "view",
      "type": "function"
    },
    {
      "constant": true,
      "inputs": [
        {
          "internalType": "address",
          "name": "_operator",
          "type": "address"
        },
        {
          "internalType": "address",
          "name": "_proxy",
          "type": "address"
        },
        {
          "internalType": "bytes4",
          "name": "_privilege",
          "type": "bytes4"
        }
      ],
      "name": "hasProxyPrivilege",
      "outputs": [
        {
          "internalType": "bool",
          "name": "",
          "type": "bool"
        }
      ],
      "payable": false,
      "stateMutability": "view",
      "type": "function"
    },
    {
      "constant": true,
      "inputs": [],
      "name": "proxyCode",
      "outputs": [
        {
          "internalType": "bytes",
          "name": "",
          "type": "bytes"
        }
      ],
      "payable": false,
      "stateMutability": "view",
      "type": "function"
    },
    {
      "constant": false,
      "inputs": [
        {
          "internalType": "bytes",
          "name": "_code",
          "type": "bytes"
        }
      ],
      "name": "defineProxyCode",
      "outputs": [
        {
          "internalType": "bool",
          "name": "",
          "type": "bool"
        }
      ],
      "payable": false,
      "stateMutability": "nonpayable",
      "type": "function"
    },
    {
      "constant": true,
      "inputs": [],
      "name": "hasCoreAccess",
      "outputs": [
        {
          "internalType": "bool",
          "name": "access",
          "type": "bool"
        }
      ],
      "payable": false,
      "stateMutability": "view",
      "type": "function"
    },
    {
      "constant": false,
      "inputs": [
        {
          "internalType": "uint256",
          "name": "_delegateId",
          "type": "uint256"
        },
        {
          "internalType": "string",
          "name": "_name",
          "type": "string"
        },
        {
          "internalType": "string",
          "name": "_symbol",
          "type": "string"
        },
        {
          "internalType": "uint256",
          "name": "_decimals",
          "type": "uint256"
        },
        {
          "internalType": "uint256",
          "name": "_lockEnd",
          "type": "uint256"
        },
        {
          "internalType": "address[]",
          "name": "_vaults",
          "type": "address[]"
        },
        {
          "internalType": "uint256[]",
          "name": "_supplies",
          "type": "uint256[]"
        },
        {
          "internalType": "address[]",
          "name": "_proxyOperators",
          "type": "address[]"
        }
      ],
      "name": "deployToken",
      "outputs": [
        {
          "internalType": "address",
          "name": "",
          "type": "address"
        }
      ],
      "payable": false,
      "stateMutability": "nonpayable",
      "type": "function"
    },
    {
      "constant": false,
      "inputs": [
        {
          "internalType": "address",
          "name": "_token",
          "type": "address"
        },
        {
          "internalType": "address[]",
          "name": "_auditSelectors",
          "type": "address[]"
        }
      ],
      "name": "reviewToken",
      "outputs": [
        {
          "internalType": "bool",
          "name": "",
          "type": "bool"
        }
      ],
      "payable": false,
      "stateMutability": "nonpayable",
      "type": "function"
    },
    {
      "constant": false,
      "inputs": [
        {
          "internalType": "address",
          "name": "_token",
          "type": "address"
        },
        {
          "internalType": "address[]",
          "name": "_tokensales",
          "type": "address[]"
        },
        {
          "internalType": "uint256[]",
          "name": "_allowances",
          "type": "uint256[]"
        }
      ],
      "name": "configureTokensales",
      "outputs": [
        {
          "internalType": "bool",
          "name": "",
          "type": "bool"
        }
      ],
      "payable": false,
      "stateMutability": "nonpayable",
      "type": "function"
    },
    {
      "constant": false,
      "inputs": [
        {
          "internalType": "address",
          "name": "_token",
          "type": "address"
        },
        {
          "internalType": "address[]",
          "name": "_spenders",
          "type": "address[]"
        },
        {
          "internalType": "uint256[]",
          "name": "_allowances",
          "type": "uint256[]"
        }
      ],
      "name": "updateAllowances",
      "outputs": [
        {
          "internalType": "bool",
          "name": "",
          "type": "bool"
        }
      ],
      "payable": false,
      "stateMutability": "nonpayable",
      "type": "function"
    }
  ],
  "bytecode": "0x60e06040819052608090819080602f62002ab78239602f01905060405180910390206001600160e01b0319166001600160e01b0319168152602001604051808062002ae660329139603201905060405180910390206001600160e01b0319166001600160e01b0319168152602001604051808062002a82603591396040519081900360350190207fffffffff000000000000000000000000000000000000000000000000000000001690915250620000bc906002906003620001e2565b506040518060600160405280604051808062002a5b60279139602701905060405180910390206001600160e01b0319166001600160e01b0319168152602001604051808062002a2e602d91396040805191829003602d019091207fffffffff00000000000000000000000000000000000000000000000000000000908116845281517f646566696e6552756c657328616464726573732c616464726573735b5d2900008152915191829003601e019091201660209092019190915250620001879060039081620001e2565b503480156200019557600080fd5b5060405162002b1838038062002b1883398181016040526020811015620001bb57600080fd5b5051600180546001600160a01b0319166001600160a01b03909216919091179055620002bc565b82805482825590600052602060002090600701600890048101928215620002835791602002820160005b838211156200024f57835183826101000a81548163ffffffff021916908360e01c021790555092602001926004016020816003010492830192600103026200020c565b8015620002815782816101000a81549063ffffffff02191690556004016020816003010492830192600103026200024f565b505b506200029192915062000295565b5090565b620002b991905b808211156200029157805463ffffffff191681556001016200029c565b90565b61276280620002cc6000396000f3fe608060405234801561001057600080fd5b50600436106100be5760003560e01c80636fa59bbc116100765780639f9029091161005b5780639f90290914610716578063afd5b0c71461084d578063f2f4eb2614610883576100be565b80636fa59bbc146103b0578063736eb2ab1461042d576100be565b80634562dd94116100a75780634562dd94146101855780635ae7030c146102bc57806368da830c1461036f576100be565b8063413c34ea146100c3578063441faf4b146100df575b600080fd5b6100cb61088b565b604080519115158252519081900360200190f35b6100cb600480360360208110156100f557600080fd5b81019060208101813564010000000081111561011057600080fd5b82018360208201111561012257600080fd5b8035906020019184600183028401116401000000008311171561014457600080fd5b91908080601f016020809104026020016040519081016040528093929190818152602001838380828437600092019190915250929550610a17945050505050565b6100cb6004803603606081101561019b57600080fd5b6001600160a01b0382351691908101906040810160208201356401000000008111156101c657600080fd5b8201836020820111156101d857600080fd5b803590602001918460208302840111640100000000831117156101fa57600080fd5b919080806020026020016040519081016040528093929190818152602001838360200280828437600092019190915250929594936020810193503591505064010000000081111561024a57600080fd5b82018360208201111561025c57600080fd5b8035906020019184602083028401116401000000008311171561027e57600080fd5b919080806020026020016040519081016040528093929190818152602001838360200280828437600092019190915250929550610af7945050505050565b6100cb600480360360408110156102d257600080fd5b6001600160a01b0382351691908101906040810160208201356401000000008111156102fd57600080fd5b82018360208201111561030f57600080fd5b8035906020019184602083028401116401000000008311171561033157600080fd5b919080806020026020016040519081016040528093929190818152602001838360200280828437600092019190915250929550611035945050505050565b6100cb6004803603606081101561038557600080fd5b5080356001600160a01b0390811691602081013590911690604001356001600160e01b031916611493565b6103b8611530565b6040805160208082528351818301528351919283929083019185019080838360005b838110156103f25781810151838201526020016103da565b50505050905090810190601f16801561041f5780820380516001836020036101000a031916815260200191505b509250505060405180910390f35b6106fa600480360361010081101561044457600080fd5b8135919081019060408101602082013564010000000081111561046657600080fd5b82018360208201111561047857600080fd5b8035906020019184600183028401116401000000008311171561049a57600080fd5b91908080601f01602080910402602001604051908101604052809392919081815260200183838082843760009201919091525092959493602081019350359150506401000000008111156104ed57600080fd5b8201836020820111156104ff57600080fd5b8035906020019184600183028401116401000000008311171561052157600080fd5b91908080601f016020809104026020016040519081016040528093929190818152602001838380828437600092019190915250929584359560208601359591945092506060810191506040013564010000000081111561058057600080fd5b82018360208201111561059257600080fd5b803590602001918460208302840111640100000000831117156105b457600080fd5b919080806020026020016040519081016040528093929190818152602001838360200280828437600092019190915250929594936020810193503591505064010000000081111561060457600080fd5b82018360208201111561061657600080fd5b8035906020019184602083028401116401000000008311171561063857600080fd5b919080806020026020016040519081016040528093929190818152602001838360200280828437600092019190915250929594936020810193503591505064010000000081111561068857600080fd5b82018360208201111561069a57600080fd5b803590602001918460208302840111640100000000831117156106bc57600080fd5b9190808060200260200160405190810160405280939291908181526020018383602002808284376000920191909152509295506115c7945050505050565b604080516001600160a01b039092168252519081900360200190f35b6100cb6004803603606081101561072c57600080fd5b6001600160a01b03823516919081019060408101602082013564010000000081111561075757600080fd5b82018360208201111561076957600080fd5b8035906020019184602083028401116401000000008311171561078b57600080fd5b91908080602002602001604051908101604052809392919081815260200183836020028082843760009201919091525092959493602081019350359150506401000000008111156107db57600080fd5b8201836020820111156107ed57600080fd5b8035906020019184602083028401116401000000008311171561080f57600080fd5b91908080602002602001604051908101604052809392919081815260200183836020028082843760009201919091525092955061205f945050505050565b6100cb6004803603604081101561086357600080fd5b5080356001600160a01b031690602001356001600160e01b0319166123dc565b6106fa612470565b600160005b6002548110156108e5578180156108db57506108db30600283815481106108b357fe5b90600052602060002090600891828204019190066004029054906101000a900460e01b6123dc565b9150600101610890565b5060005b600354811015610a1357818015610a095750600154600380546001600160a01b0390921691638c677bac917f466163746f727950726f7879526f6c6500000000000000000000000000000000918590811061094057fe5b90600052602060002090600891828204019190066004029054906101000a900460e01b6040518363ffffffff1660e01b815260040180838152602001827bffffffffffffffffffffffffffffffffffffffffffffffffffffffff19167bffffffffffffffffffffffffffffffffffffffffffffffffffffffff191681526020019250505060206040518083038186803b1580156109dc57600080fd5b505afa1580156109f0573d6000803e3d6000fd5b505050506040513d6020811015610a0657600080fd5b50515b91506001016108e9565b5090565b6001546040805163afd5b0c760e01b8152336004820152600080356001600160e01b0319166024830152915191926001600160a01b03169163afd5b0c791604480820192602092909190829003018186803b158015610a7557600080fd5b505afa158015610a89573d6000803e3d6000fd5b505050506040513d6020811015610a9f57600080fd5b5051610adb576040805162461bcd60e51b815260206004808301919091526024820152634f41303160e01b604482015290519081900360640190fd5b600154610af1906001600160a01b03168361247f565b92915050565b60015460408051631a36a0c360e21b81523360048201526001600160a01b038681166024830152600080356001600160e01b03191660448401529251929387939116916368da830c916064808301926020929190829003018186803b158015610b5f57600080fd5b505afa158015610b73573d6000803e3d6000fd5b505050506040513d6020811015610b8957600080fd5b5051610bc5576040805162461bcd60e51b8152602060048083019190915260248201526327a0981960e11b604482015290519081900360640190fd5b610bcd61088b565b610c07576040805162461bcd60e51b815260206004808301919091526024820152635446303160e01b604482015290519081900360640190fd5b8251845114610c5f576040805162461bcd60e51b8152602060048083019190915260248201527f5446313300000000000000000000000000000000000000000000000000000000604482015290519081900360640190fd5b6001546001600160a01b0316610c73612681565b816001600160a01b0316636d46a1db886040518263ffffffff1660e01b815260040180826001600160a01b03166001600160a01b0316815260200191505060006040518083038186803b158015610cc957600080fd5b505afa158015610cdd573d6000803e3d6000fd5b505050506040513d6000823e601f3d908101601f19168201604052610120811015610d0757600080fd5b81516020830151604080850151606086015160c087015160e088018051945196989597939692956080810195929481019290919084640100000000821115610d4e57600080fd5b908301906020820185811115610d6357600080fd5b8251866020820283011164010000000082111715610d8057600080fd5b82525081516020918201928201910280838360005b83811015610dad578181015183820152602001610d95565b5050505090500160405260200180516040519392919084640100000000821115610dd657600080fd5b908301906020820185811115610deb57600080fd5b8251866020820283011164010000000082111715610e0857600080fd5b82525081516020918201928201910280838360005b83811015610e35578181015183820152602001610e1d565b50505050905001604052505050505050945050505050816001600160a01b031663198cea238883600060028110610e6857fe5b602002015184600160200201518a6040518563ffffffff1660e01b815260040180856001600160a01b03166001600160a01b0316815260200184815260200183815260200180602001828103825283818151815260200191508051906020019060200280838360005b83811015610ee9578181015183820152602001610ed1565b5050505090500195505050505050602060405180830381600087803b158015610f1157600080fd5b505af1158015610f25573d6000803e3d6000fd5b505050506040513d6020811015610f3b57600080fd5b5051610f90576040805162461bcd60e51b8152602060048083019190915260248201527f5446313400000000000000000000000000000000000000000000000000000000604482015290519081900360640190fd5b610f9b87878761205f565b507f8f7b435c15d1a43dd1dd69c6897ac6f1a566134f5429cedfb5ad7d5577f6a3d7878760405180836001600160a01b03166001600160a01b0316815260200180602001828103825283818151815260200191508051906020019060200280838360005b83811015611017578181015183820152602001610fff565b50505050905001935050505060405180910390a15050509392505050565b6001546040805163afd5b0c760e01b8152336004820152600080356001600160e01b0319166024830152915191926001600160a01b03169163afd5b0c791604480820192602092909190829003018186803b15801561109357600080fd5b505afa1580156110a7573d6000803e3d6000fd5b505050506040513d60208110156110bd57600080fd5b50516110f9576040805162461bcd60e51b815260206004808301919091526024820152634f41303160e01b604482015290519081900360640190fd5b61110161088b565b61113b576040805162461bcd60e51b815260206004808301919091526024820152635446303160e01b604482015290519081900360640190fd5b60608251604051908082528060200260200182016040528015611168578160200160208202803883390190505b50905060005b815181101561119d57600182828151811061118557fe5b9115156020928302919091019091015260010161116e565b506001546040517f77b405690000000000000000000000000000000000000000000000000000000081526001600160a01b0390911660048201818152600060248401819052608060448501908152875160848601528751939485946377b40569948694938b938a93606482019160a40190602080880191028083838b5b8381101561123257818101518382015260200161121a565b50505050905001838103825284818151815260200191508051906020019060200280838360005b83811015611271578181015183820152602001611259565b505050509050019650505050505050602060405180830381600087803b15801561129a57600080fd5b505af11580156112ae573d6000803e3d6000fd5b505050506040513d60208110156112c457600080fd5b5051611319576040805162461bcd60e51b8152602060048083019190915260248201527f5446313100000000000000000000000000000000000000000000000000000000604482015290519081900360640190fd5b60408051600080825260208083018085527f2b6875190000000000000000000000000000000000000000000000000000000081526001600160a01b038a8116602486019081526044860196875285516064870181905291881696632b687519968d96909592949193608487019302908190849084905b838110156113a757818101518382015260200161138f565b505050509050019350505050602060405180830381600087803b1580156113cd57600080fd5b505af11580156113e1573d6000803e3d6000fd5b505050506040513d60208110156113f757600080fd5b505161144c576040805162461bcd60e51b8152602060048083019190915260248201527f5446313200000000000000000000000000000000000000000000000000000000604482015290519081900360640190fd5b604080516001600160a01b038716815290517f8ebafb125dad31d1a8748beefa23ec59a7d984ef534630d2565b314f25078ea79181900360200190a1506001949350505050565b60015460408051631a36a0c360e21b81526001600160a01b03868116600483015285811660248301526001600160e01b031985166044830152915160009392909216916368da830c91606480820192602092909190829003018186803b1580156114fc57600080fd5b505afa158015611510573d6000803e3d6000fd5b505050506040513d602081101561152657600080fd5b5051949350505050565b60008054604080516020601f60026000196101006001881615020190951694909404938401819004810282018101909252828152606093909290918301828280156115bc5780601f10611591576101008083540402835291602001916115bc565b820191906000526020600020905b81548152906001019060200180831161159f57829003601f168201915b505050505090505b90565b60006115d161088b565b61160b576040805162461bcd60e51b815260206004808301919091526024820152635446303160e01b604482015290519081900360640190fd5b8251845114611663576040805162461bcd60e51b8152602060048083019190915260248201527f5446303200000000000000000000000000000000000000000000000000000000604482015290519081900360640190fd5b600054600260001961010060018416150201909116046116cc576040805162461bcd60e51b8152602060048083019190915260248201527f5446303300000000000000000000000000000000000000000000000000000000604482015290519081900360640190fd5b60006116d661257d565b90506001600160a01b038116611735576040805162461bcd60e51b8152602060048083019190915260248201527f5446303400000000000000000000000000000000000000000000000000000000604482015290519081900360640190fd5b6000600160009054906101000a90046001600160a01b03169050806001600160a01b031663e3880ec6838d8d8d8d6040518663ffffffff1660e01b815260040180866001600160a01b03166001600160a01b031681526020018581526020018060200180602001848152602001838103835286818151815260200191508051906020019080838360005b838110156117d75781810151838201526020016117bf565b50505050905090810190601f1680156118045780820380516001836020036101000a031916815260200191505b50838103825285518152855160209182019187019080838360005b8381101561183757818101518382015260200161181f565b50505050905090810190601f1680156118645780820380516001836020036101000a031916815260200191505b50975050505050505050602060405180830381600087803b15801561188857600080fd5b505af115801561189c573d6000803e3d6000fd5b505050506040513d60208110156118b257600080fd5b5051611907576040805162461bcd60e51b8152602060048083019190915260248201527f5446303500000000000000000000000000000000000000000000000000000000604482015290519081900360640190fd5b60408051600180825281830190925260609160208083019080388339019050509050308160008151811061193757fe5b60200260200101906001600160a01b031690816001600160a01b031681525050816001600160a01b0316637bcfc0e1847f466163746f727950726f7879526f6c6500000000000000000000000000000000846040518463ffffffff1660e01b815260040180846001600160a01b03166001600160a01b0316815260200183815260200180602001828103825283818151815260200191508051906020019060200280838360005b838110156119f65781810151838201526020016119de565b50505050905001945050505050602060405180830381600087803b158015611a1d57600080fd5b505af1158015611a31573d6000803e3d6000fd5b505050506040513d6020811015611a4757600080fd5b5051611a9c576040805162461bcd60e51b8152602060048083019190915260248201527f5446303600000000000000000000000000000000000000000000000000000000604482015290519081900360640190fd5b816001600160a01b0316637bcfc0e1847f49737375657250726f7879526f6c650000000000000000000000000000000000886040518463ffffffff1660e01b815260040180846001600160a01b03166001600160a01b0316815260200183815260200180602001828103825283818151815260200191508051906020019060200280838360005b83811015611b3b578181015183820152602001611b23565b50505050905001945050505050602060405180830381600087803b158015611b6257600080fd5b505af1158015611b76573d6000803e3d6000fd5b505050506040513d6020811015611b8c57600080fd5b5051611be1576040805162461bcd60e51b8152602060048083019190915260248201527f5446303700000000000000000000000000000000000000000000000000000000604482015290519081900360640190fd5b604080516001808252818301909252606091602080830190803883390190505090503081600081518110611c1157fe5b60200260200101906001600160a01b031690816001600160a01b031681525050826001600160a01b0316632b68751985836040518363ffffffff1660e01b815260040180836001600160a01b03166001600160a01b0316815260200180602001828103825283818151815260200191508051906020019060200280838360005b83811015611ca9578181015183820152602001611c91565b505050509050019350505050602060405180830381600087803b158015611ccf57600080fd5b505af1158015611ce3573d6000803e3d6000fd5b505050506040513d6020811015611cf957600080fd5b5051611d4e576040805162461bcd60e51b8152602060048083019190915260248201527f5446303800000000000000000000000000000000000000000000000000000000604482015290519081900360640190fd5b42891115611eaf57826001600160a01b031663198cea238560008c6000604051908082528060200260200182016040528015611d94578160200160208202803883390190505b506040518563ffffffff1660e01b815260040180856001600160a01b03166001600160a01b0316815260200184815260200183815260200180602001828103825283818151815260200191508051906020019060200280838360005b83811015611e08578181015183820152602001611df0565b5050505090500195505050505050602060405180830381600087803b158015611e3057600080fd5b505af1158015611e44573d6000803e3d6000fd5b505050506040513d6020811015611e5a57600080fd5b5051611eaf576040805162461bcd60e51b8152602060048083019190915260248201527f5446303900000000000000000000000000000000000000000000000000000000604482015290519081900360640190fd5b826001600160a01b0316633e092f56858a8a6040518463ffffffff1660e01b815260040180846001600160a01b03166001600160a01b031681526020018060200180602001838103835285818151815260200191508051906020019060200280838360005b83811015611f2c578181015183820152602001611f14565b50505050905001838103825284818151815260200191508051906020019060200280838360005b83811015611f6b578181015183820152602001611f53565b5050505090500195505050505050602060405180830381600087803b158015611f9357600080fd5b505af1158015611fa7573d6000803e3d6000fd5b505050506040513d6020811015611fbd57600080fd5b5051612012576040805162461bcd60e51b8152602060048083019190915260248201527f5446313000000000000000000000000000000000000000000000000000000000604482015290519081900360640190fd5b604080516001600160a01b038616815290517f91d24864a084ab70b268a1f865e757ca12006cf298d763b6be697302ef86498c9181900360200190a150919b9a5050505050505050505050565b60015460408051631a36a0c360e21b81523360048201526001600160a01b038681166024830152600080356001600160e01b03191660448401529251929387939116916368da830c916064808301926020929190829003018186803b1580156120c757600080fd5b505afa1580156120db573d6000803e3d6000fd5b505050506040513d60208110156120f157600080fd5b505161212d576040805162461bcd60e51b8152602060048083019190915260248201526327a0981960e11b604482015290519081900360640190fd5b604080517f70a0823100000000000000000000000000000000000000000000000000000000815230600482015290516000916001600160a01b038816916370a0823191602480820192602092909190829003018186803b15801561219057600080fd5b505afa1580156121a4573d6000803e3d6000fd5b505050506040513d60208110156121ba57600080fd5b5051905060005b85518110156123d257818582815181106121d757fe5b60200260200101511115612234576040805162461bcd60e51b8152602060048083019190915260248201527f5446313500000000000000000000000000000000000000000000000000000000604482015290519081900360640190fd5b866001600160a01b031663095ea7b387838151811061224f57fe5b602002602001015187848151811061226357fe5b60200260200101516040518363ffffffff1660e01b815260040180836001600160a01b03166001600160a01b0316815260200182815260200192505050602060405180830381600087803b1580156122ba57600080fd5b505af11580156122ce573d6000803e3d6000fd5b505050506040513d60208110156122e457600080fd5b5051612339576040805162461bcd60e51b8152602060048083019190915260248201527f5446313600000000000000000000000000000000000000000000000000000000604482015290519081900360640190fd5b7fedc543c2aa922c79f0a23b1769269d80cc68467000633f17d04dc83c36fe2b718787838151811061236757fe5b602002602001015187848151811061237b57fe5b602002602001015160405180846001600160a01b03166001600160a01b03168152602001836001600160a01b03166001600160a01b03168152602001828152602001935050505060405180910390a16001016121c1565b5050509392505050565b6001546040805163afd5b0c760e01b81526001600160a01b0385811660048301526001600160e01b0319851660248301529151600093929092169163afd5b0c791604480820192602092909190829003018186803b15801561243d57600080fd5b505afa158015612451573d6000803e3d6000fd5b505050506040513d602081101561246757600080fd5b50519392505050565b6001546001600160a01b031681565b6000806124bc8460405160200180826001600160a01b03166001600160a01b0316815260200191505060405160208183030381529060405261261e565b905082816040516020018083805190602001908083835b602083106124f25780518252601f1990920191602091820191016124d3565b51815160209384036101000a6000190180199092169116179052920193845250604080518085038152938201905282516125349450600093909101915061269f565b507f76671ce6fd9cfc336003d651c4d22726629826de81a26925a9510375c5c3869583805190602001206040518082815260200191505060405180910390a15060019392505050565b6000805460408051602060026001851615610100026000190190941693909304601f8101849004840282018401909252818152606092909184918301828280156126085780601f106125dd57610100808354040283529160200191612608565b820191906000526020600020905b8154815290600101906020018083116125eb57829003601f168201915b505050505090508051602082016000f091505090565b6000602082511115612679576040805162461bcd60e51b8152602060048083019190915260248201527f4243303200000000000000000000000000000000000000000000000000000000604482015290519081900360640190fd5b506020015190565b60405180604001604052806002906020820280388339509192915050565b828054600181600116156101000203166002900490600052602060002090601f016020900481019282601f106126e057805160ff191683800117855561270d565b8280016001018555821561270d579182015b8281111561270d5782518255916020019190600101906126f2565b50610a13926115c49250905b80821115610a13576000815560010161271956fea265627a7a7231582021556a880f9c8f217bb85cae53fbca957ccef52c22cd8f26ce5eceadf6a3b23d64736f6c634300050c0032646566696e654c6f636b28616464726573732c75696e743235362c75696e743235362c616464726573735b5d296d696e7441744f6e636528616464726573732c616464726573735b5d2c75696e743235365b5d29646566696e65417564697453656c6563746f7228616464726573732c75696e743235362c616464726573735b5d2c626f6f6c5b5d2961737369676e50726f78794f70657261746f727328616464726573732c627974657333322c616464726573735b5d29646566696e65546f6b656e28616464726573732c75696e743235362c737472696e672c737472696e672c75696e7432353629",
  "source": "pragma solidity >=0.5.0 <0.6.0;\n\nimport \"./abstract/Factory.sol\";\nimport \"./operable/OperableAsCore.sol\";\nimport \"./interface/IERC20.sol\";\nimport \"./interface/ITokenCore.sol\";\nimport \"./interface/ITokenFactory.sol\";\n\n\n/**\n * @title TokenFactory\n *\n * @author Cyril Lapinte - <cyril.lapinte@openfiz.com>\n *\n * Error messages\n *   TF01: Required privileges must be granted from the core to the factory\n *   TF02: There must be the same number of vault and supplies\n *   TF03: A proxy code must defined\n *   TF04: Token proxy must deployed\n *   TF05: Token must be defined in the core\n *   TF06: Factory role must be granted on the proxy\n *   TF07: Issuer role must be granted on the proxy\n *   TF08: The rule must be set\n *   TF09: The token must be locked\n *   TF10: Token must be minted\n *   TF11: The selector must be set\n *   TF12: The rule must be removed\n *   TF13: Same number of tokensales and allowances must be provided\n *   TF14: Exceptions must be added to the lock\n *   TF15: Allowances must be lower than the token balance\n *   TF16: Allowance must be successfull\n **/\ncontract TokenFactory is ITokenFactory, Factory, OperableAsCore {\n\n  bytes4[] private REQUIRED_CORE_PRIVILEGES = [\n    bytes4(keccak256(\"assignProxyOperators(address,bytes32,address[])\")),\n    bytes4(keccak256(\"defineToken(address,uint256,string,string,uint256)\")),\n    bytes4(keccak256(\"defineAuditSelector(address,uint256,address[],bool[])\"))\n  ];\n  bytes4[] private REQUIRED_PROXY_PRIVILEGES = [\n    bytes4(keccak256(\"mintAtOnce(address,address[],uint256[])\")),\n    bytes4(keccak256(\"defineLock(address,uint256,uint256,address[])\")),\n    bytes4(keccak256(\"defineRules(address,address[])\"))\n  ];\n\n  bytes32 constant FACTORY_PROXY_ROLE = bytes32(\"FactoryProxyRole\");\n  bytes32 constant ISSUER_PROXY_ROLE = bytes32(\"IssuerProxyRole\");\n\n  /**\n   * @dev constructor\n   **/\n  constructor(address _core) public OperableAsCore(_core) {}\n\n  /**\n   * @dev defineProxyCode\n   */\n  function defineProxyCode(bytes memory _code)\n    public onlyCoreOperator returns (bool)\n  {\n    return defineProxyCodeInternal(address(core), _code);\n  }\n\n  /**\n   * @dev has core access\n   */\n  function hasCoreAccess() public view returns (bool access) {\n    access = true;\n    for (uint256 i=0; i<REQUIRED_CORE_PRIVILEGES.length; i++) {\n      access = access && hasCorePrivilege(\n        address(this), REQUIRED_CORE_PRIVILEGES[i]);\n    }\n    for (uint256 i=0; i<REQUIRED_PROXY_PRIVILEGES.length; i++) {\n      access = access && core.rolePrivilege(\n        FACTORY_PROXY_ROLE, REQUIRED_PROXY_PRIVILEGES[i]);\n    }\n  }\n\n  /**\n   * @dev deploy token\n   */\n  function deployToken(\n    uint256 _delegateId,\n    string memory _name,\n    string memory _symbol,\n    uint256 _decimals,\n    uint256 _lockEnd,\n    address[] memory _vaults,\n    uint256[] memory _supplies,\n    address[] memory _proxyOperators\n  ) public returns (address) {\n    require(hasCoreAccess(), \"TF01\");\n    require(_vaults.length == _supplies.length, \"TF02\");\n    require(proxyCode_.length != 0, \"TF03\");\n\n    // 1- Creating a proxy\n    address token = deployProxyInternal();\n    require(token != address(0), \"TF04\");\n\n    // 2- Defining the token in the core\n    ITokenCore tokenCore = ITokenCore(address(core));\n    require(tokenCore.defineToken(\n      token, _delegateId, _name, _symbol, _decimals), \"TF05\");\n\n    // 3- Assign roles\n    address[] memory factoryAddress = new address[](1);\n    factoryAddress[0] = address(this);\n    require(tokenCore.assignProxyOperators(token, FACTORY_PROXY_ROLE, factoryAddress), \"TF06\");\n    require(tokenCore.assignProxyOperators(token, ISSUER_PROXY_ROLE, _proxyOperators), \"TF07\");\n\n    // 4- Define rules\n    // Token is locked for review by core operators\n    // Removing the token factory from the rules will unlocked the token\n    IRule[] memory factoryRules = new IRule[](1);\n    factoryRules[0] = IRule(address(this));\n    require(tokenCore.defineRules(token, factoryRules), \"TF08\");\n\n    // 5- Locking the token\n    if (_lockEnd > now) {\n      require(tokenCore.defineLock(token, 0, _lockEnd, new address[](0)), \"TF09\");\n    }\n\n    // 6- Minting the token\n    require(tokenCore.mintAtOnce(token, _vaults, _supplies), \"TF10\");\n\n    emit TokenDeployed(token);\n    return token;\n  }\n\n  /**\n   * @dev reviewToken\n   */\n  function reviewToken(address _token, address[] memory _auditSelectors)\n    public onlyCoreOperator returns (bool)\n  {\n    require(hasCoreAccess(), \"TF01\");\n\n    bool[] memory values = new bool[](_auditSelectors.length);\n    for(uint256 i=0; i < values.length; i++) {\n      values[i] = true;\n    }\n\n    ITokenCore tokenCore = ITokenCore(address(core));\n    require(tokenCore.defineAuditSelector(address(core), 0, _auditSelectors, values), \"TF11\");\n    require(tokenCore.defineRules(_token, new IRule[](0)), \"TF12\");\n    emit TokenReviewed(_token);\n    return true;\n  }\n\n  /**\n   * @dev configureTokensales\n   */\n  function configureTokensales(address _token,\n    address[] memory _tokensales, uint256[] memory _allowances)\n    public onlyProxyOperator(_token) returns (bool)\n  {\n    require(hasCoreAccess(), \"TF01\");\n    require(_tokensales.length == _allowances.length, \"TF13\");\n\n    ITokenCore tokenCore = ITokenCore(address(core));\n    (,,,,uint256[2] memory schedule,,,) = tokenCore.token(_token);\n    require(tokenCore.defineLock(_token, schedule[0], schedule[1], _tokensales), \"TF14\");\n\n    updateAllowances(_token, _tokensales, _allowances);\n    emit TokensalesConfigured(_token, _tokensales);\n  }\n\n  /**\n   * @dev updateAllowance\n   */\n  function updateAllowances(address _token, address[] memory _spenders, uint256[] memory _allowances)\n    public onlyProxyOperator(_token) returns (bool)\n  {\n    uint256 balance = IERC20(_token).balanceOf(address(this));\n    for(uint256 i=0; i < _spenders.length; i++) {\n      require(_allowances[i] <= balance, \"TF15\");\n      require(IERC20(_token).approve(_spenders[i], _allowances[i]), \"TF16\");\n      emit AllowanceUpdated(_token, _spenders[i], _allowances[i]);\n    }\n  }\n}\n",
  "sourcePath": "/home/benjamin/work/clayer/contracts/c-layer-core/contracts/TokenFactory.sol",
  "compiler": {
    "name": "solc",
    "version": "0.5.12+commit.7709ece9.Emscripten.clang"
  },
  "schemaVersion": "3.0.23",
  "updatedAt": "2020-03-14T17:10:02.729Z",
  "devdoc": {
    "author": "Cyril Lapinte - <cyril.lapinte@openfiz.com> * Error messages  TF01: Required privileges must be granted from the core to the factory  TF02: There must be the same number of vault and supplies  TF03: A proxy code must defined  TF04: Token proxy must deployed  TF05: Token must be defined in the core  TF06: Factory role must be granted on the proxy  TF07: Issuer role must be granted on the proxy  TF08: The rule must be set  TF09: The token must be locked  TF10: Token must be minted  TF11: The selector must be set  TF12: The rule must be removed  TF13: Same number of tokensales and allowances must be provided  TF14: Exceptions must be added to the lock  TF15: Allowances must be lower than the token balance  TF16: Allowance must be successfull*",
    "methods": {
      "configureTokensales(address,address[],uint256[])": {
        "details": "configureTokensales"
      },
      "constructor": {
        "details": "constructor*"
      },
      "defineProxyCode(bytes)": {
        "details": "defineProxyCode"
      },
      "deployToken(uint256,string,string,uint256,uint256,address[],uint256[],address[])": {
        "details": "deploy token"
      },
      "hasCoreAccess()": {
        "details": "has core access"
      },
      "hasCorePrivilege(address,bytes4)": {
        "details": "hasCorePrivilege"
      },
      "hasProxyPrivilege(address,address,bytes4)": {
        "details": "hasProxyPrivilege"
      },
      "proxyCode()": {
        "details": "proxyCode"
      },
      "reviewToken(address,address[])": {
        "details": "reviewToken"
      },
      "updateAllowances(address,address[],uint256[])": {
        "details": "updateAllowance"
      }
    },
    "title": "TokenFactory"
  },
  "userdoc": {
    "methods": {}
  }
}