{
  "contractName": "TokenStorage",
  "abi": [
    {
      "anonymous": false,
      "inputs": [
        {
          "indexed": true,
          "internalType": "address",
          "name": "scope",
          "type": "address"
        },
        {
          "indexed": false,
          "internalType": "uint256",
          "name": "scopeId",
          "type": "uint256"
        },
        {
          "indexed": false,
          "internalType": "address[]",
          "name": "addresses",
          "type": "address[]"
        },
        {
          "indexed": false,
          "internalType": "bool[]",
          "name": "values",
          "type": "bool[]"
        }
      ],
      "name": "AuditSelectorDefined",
      "type": "event"
    },
    {
      "anonymous": false,
      "inputs": [
        {
          "indexed": true,
          "internalType": "address",
          "name": "token",
          "type": "address"
        },
        {
          "indexed": false,
          "internalType": "contract IClaimable[]",
          "name": "claimables",
          "type": "address[]"
        }
      ],
      "name": "ClaimablesDefined",
      "type": "event"
    },
    {
      "anonymous": false,
      "inputs": [
        {
          "indexed": false,
          "internalType": "address",
          "name": "address_",
          "type": "address"
        },
        {
          "indexed": false,
          "internalType": "uint256",
          "name": "until",
          "type": "uint256"
        }
      ],
      "name": "Freeze",
      "type": "event"
    },
    {
      "anonymous": false,
      "inputs": [
        {
          "indexed": true,
          "internalType": "address",
          "name": "token",
          "type": "address"
        },
        {
          "indexed": false,
          "internalType": "uint256",
          "name": "amount",
          "type": "uint256"
        }
      ],
      "name": "Issue",
      "type": "event"
    },
    {
      "anonymous": false,
      "inputs": [
        {
          "indexed": true,
          "internalType": "address",
          "name": "token",
          "type": "address"
        },
        {
          "indexed": false,
          "internalType": "uint256",
          "name": "startAt",
          "type": "uint256"
        },
        {
          "indexed": false,
          "internalType": "uint256",
          "name": "endAt",
          "type": "uint256"
        },
        {
          "indexed": false,
          "internalType": "address[]",
          "name": "exceptions",
          "type": "address[]"
        }
      ],
      "name": "LockDefined",
      "type": "event"
    },
    {
      "anonymous": false,
      "inputs": [
        {
          "indexed": true,
          "internalType": "address",
          "name": "token",
          "type": "address"
        },
        {
          "indexed": false,
          "internalType": "uint256",
          "name": "amount",
          "type": "uint256"
        }
      ],
      "name": "Mint",
      "type": "event"
    },
    {
      "anonymous": false,
      "inputs": [
        {
          "indexed": true,
          "internalType": "address",
          "name": "token",
          "type": "address"
        }
      ],
      "name": "MintFinished",
      "type": "event"
    },
    {
      "anonymous": false,
      "inputs": [
        {
          "indexed": false,
          "internalType": "contract IUserRegistry",
          "name": "userRegistry",
          "type": "address"
        },
        {
          "indexed": false,
          "internalType": "contract IRatesProvider",
          "name": "ratesProvider",
          "type": "address"
        },
        {
          "indexed": false,
          "internalType": "bytes32",
          "name": "currency",
          "type": "bytes32"
        },
        {
          "indexed": false,
          "internalType": "uint256[]",
          "name": "userKeys",
          "type": "uint256[]"
        }
      ],
      "name": "OraclesDefined",
      "type": "event"
    },
    {
      "anonymous": false,
      "inputs": [
        {
          "indexed": true,
          "internalType": "address",
          "name": "previousOwner",
          "type": "address"
        }
      ],
      "name": "OwnershipRenounced",
      "type": "event"
    },
    {
      "anonymous": false,
      "inputs": [
        {
          "indexed": true,
          "internalType": "address",
          "name": "previousOwner",
          "type": "address"
        },
        {
          "indexed": true,
          "internalType": "address",
          "name": "newOwner",
          "type": "address"
        }
      ],
      "name": "OwnershipTransferred",
      "type": "event"
    },
    {
      "anonymous": false,
      "inputs": [
        {
          "indexed": true,
          "internalType": "address",
          "name": "token",
          "type": "address"
        },
        {
          "indexed": true,
          "internalType": "address",
          "name": "holder",
          "type": "address"
        },
        {
          "indexed": false,
          "internalType": "uint256",
          "name": "proofId",
          "type": "uint256"
        }
      ],
      "name": "ProofCreated",
      "type": "event"
    },
    {
      "anonymous": false,
      "inputs": [
        {
          "indexed": true,
          "internalType": "address",
          "name": "token",
          "type": "address"
        },
        {
          "indexed": false,
          "internalType": "uint256",
          "name": "amount",
          "type": "uint256"
        }
      ],
      "name": "Redeem",
      "type": "event"
    },
    {
      "anonymous": false,
      "inputs": [
        {
          "indexed": true,
          "internalType": "address",
          "name": "token",
          "type": "address"
        },
        {
          "indexed": false,
          "internalType": "contract IRule[]",
          "name": "rules",
          "type": "address[]"
        }
      ],
      "name": "RulesDefined",
      "type": "event"
    },
    {
      "anonymous": false,
      "inputs": [
        {
          "indexed": true,
          "internalType": "address",
          "name": "token",
          "type": "address"
        },
        {
          "indexed": false,
          "internalType": "address",
          "name": "account",
          "type": "address"
        },
        {
          "indexed": false,
          "internalType": "uint256",
          "name": "amount",
          "type": "uint256"
        }
      ],
      "name": "Seize",
      "type": "event"
    },
    {
      "anonymous": false,
      "inputs": [
        {
          "indexed": true,
          "internalType": "address",
          "name": "token",
          "type": "address"
        },
        {
          "indexed": false,
          "internalType": "uint256",
          "name": "delegateId",
          "type": "uint256"
        },
        {
          "indexed": false,
          "internalType": "string",
          "name": "name",
          "type": "string"
        },
        {
          "indexed": false,
          "internalType": "string",
          "name": "symbol",
          "type": "string"
        },
        {
          "indexed": false,
          "internalType": "uint256",
          "name": "decimals",
          "type": "uint256"
        }
      ],
      "name": "TokenDefined",
      "type": "event"
    },
    {
      "anonymous": false,
      "inputs": [
        {
          "indexed": true,
          "internalType": "address",
          "name": "token",
          "type": "address"
        }
      ],
      "name": "TokenRemoved",
      "type": "event"
    },
    {
      "constant": true,
      "inputs": [
        {
          "internalType": "address",
          "name": "_address",
          "type": "address"
        }
      ],
      "name": "coreRole",
      "outputs": [
        {
          "internalType": "bytes32",
          "name": "",
          "type": "bytes32"
        }
      ],
      "payable": false,
      "stateMutability": "view",
      "type": "function"
    },
    {
      "constant": true,
      "inputs": [
        {
          "internalType": "uint256",
          "name": "",
          "type": "uint256"
        }
      ],
      "name": "delegates",
      "outputs": [
        {
          "internalType": "address",
          "name": "",
          "type": "address"
        }
      ],
      "payable": false,
      "stateMutability": "view",
      "type": "function"
    },
    {
      "constant": true,
      "inputs": [
        {
          "internalType": "address",
          "name": "_address",
          "type": "address"
        },
        {
          "internalType": "bytes4",
          "name": "_privilege",
          "type": "bytes4"
        }
      ],
      "name": "hasCorePrivilege",
      "outputs": [
        {
          "internalType": "bool",
          "name": "",
          "type": "bool"
        }
      ],
      "payable": false,
      "stateMutability": "view",
      "type": "function"
    },
    {
      "constant": true,
      "inputs": [
        {
          "internalType": "address",
          "name": "_address",
          "type": "address"
        },
        {
          "internalType": "address",
          "name": "_proxy",
          "type": "address"
        },
        {
          "internalType": "bytes4",
          "name": "_privilege",
          "type": "bytes4"
        }
      ],
      "name": "hasProxyPrivilege",
      "outputs": [
        {
          "internalType": "bool",
          "name": "",
          "type": "bool"
        }
      ],
      "payable": false,
      "stateMutability": "view",
      "type": "function"
    },
    {
      "constant": true,
      "inputs": [],
      "name": "owner",
      "outputs": [
        {
          "internalType": "address",
          "name": "",
          "type": "address"
        }
      ],
      "payable": false,
      "stateMutability": "view",
      "type": "function"
    },
    {
      "constant": true,
      "inputs": [
        {
          "internalType": "address",
          "name": "",
          "type": "address"
        }
      ],
      "name": "proxyDelegates",
      "outputs": [
        {
          "internalType": "address",
          "name": "",
          "type": "address"
        }
      ],
      "payable": false,
      "stateMutability": "view",
      "type": "function"
    },
    {
      "constant": true,
      "inputs": [
        {
          "internalType": "address",
          "name": "_proxy",
          "type": "address"
        },
        {
          "internalType": "address",
          "name": "_address",
          "type": "address"
        }
      ],
      "name": "proxyRole",
      "outputs": [
        {
          "internalType": "bytes32",
          "name": "",
          "type": "bytes32"
        }
      ],
      "payable": false,
      "stateMutability": "view",
      "type": "function"
    },
    {
      "constant": false,
      "inputs": [],
      "name": "renounceOwnership",
      "outputs": [],
      "payable": false,
      "stateMutability": "nonpayable",
      "type": "function"
    },
    {
      "constant": true,
      "inputs": [
        {
          "internalType": "bytes32",
          "name": "_role",
          "type": "bytes32"
        },
        {
          "internalType": "bytes4",
          "name": "_privilege",
          "type": "bytes4"
        }
      ],
      "name": "roleHasPrivilege",
      "outputs": [
        {
          "internalType": "bool",
          "name": "",
          "type": "bool"
        }
      ],
      "payable": false,
      "stateMutability": "view",
      "type": "function"
    },
    {
      "constant": true,
      "inputs": [
        {
          "internalType": "bytes32",
          "name": "_role",
          "type": "bytes32"
        },
        {
          "internalType": "bytes4",
          "name": "_privilege",
          "type": "bytes4"
        }
      ],
      "name": "rolePrivilege",
      "outputs": [
        {
          "internalType": "bool",
          "name": "",
          "type": "bool"
        }
      ],
      "payable": false,
      "stateMutability": "view",
      "type": "function"
    },
    {
      "constant": false,
      "inputs": [
        {
          "internalType": "address",
          "name": "_newOwner",
          "type": "address"
        }
      ],
      "name": "transferOwnership",
      "outputs": [],
      "payable": false,
      "stateMutability": "nonpayable",
      "type": "function"
    }
  ],
  "bytecode": "0x6080604052600080546001600160a01b031916331790556106cd806100256000396000f3fe608060405234801561001057600080fd5b50600436106100c95760003560e01c8063afd5b0c711610081578063c4697c211161005b578063c4697c2114610237578063d5e444f61461025d578063f2fde38b1461028a576100c9565b8063afd5b0c7146101be578063b1548afc146101f4578063b5fa131014610211576100c9565b80638c677bac116100b25780638c677bac1461012d5780638da5cb5b1461015a5780639cf8c32a1461017e576100c9565b806368da830c146100ce578063715018a614610123575b600080fd5b61010f600480360360608110156100e457600080fd5b5080356001600160a01b0390811691602081013590911690604001356001600160e01b0319166102b0565b604080519115158252519081900360200190f35b61012b61036e565b005b61010f6004803603604081101561014357600080fd5b50803590602001356001600160e01b03191661040b565b610162610437565b604080516001600160a01b039092168252519081900360200190f35b6101ac6004803603604081101561019457600080fd5b506001600160a01b0381358116916020013516610446565b60408051918252519081900360200190f35b61010f600480360360408110156101d457600080fd5b5080356001600160a01b031690602001356001600160e01b031916610476565b6101626004803603602081101561020a57600080fd5b50356104d8565b6101626004803603602081101561022757600080fd5b50356001600160a01b03166104ff565b6101ac6004803603602081101561024d57600080fd5b50356001600160a01b031661051a565b61010f6004803603604081101561027357600080fd5b50803590602001356001600160e01b031916610535565b61012b600480360360208110156102a057600080fd5b50356001600160a01b031661057f565b6001600160a01b03808416600090815260036020908152604080832093861683526001840190915281205490919082906103055769416c6c50726f786965736000908152600183016020526040902054610321565b6001600160a01b03851660009081526001830160205260409020545b90506c416c6c50726976696c6567657360981b811480610364575060008181526004602090815260408083206001600160e01b03198816845290915290205460ff165b9695505050505050565b6000546001600160a01b031633146103b6576040805162461bcd60e51b815260206004808301919091526024820152634f57303160e01b604482015290519081900360640190fd5b600080546040516001600160a01b03909116917ff8df31144d9c2f0f6b59d69b8b98abd5459d07f2742c4df920b25aae33c6482091a26000805473ffffffffffffffffffffffffffffffffffffffff19169055565b60009182526004602090815260408084206001600160e01b031993909316845291905290205460ff1690565b6000546001600160a01b031681565b6001600160a01b038082166000908152600360209081526040808320938616835260019093019052205492915050565b6001600160a01b0382166000908152600360205260408120546c416c6c50726976696c6567657360981b8114806104d0575060008181526004602090815260408083206001600160e01b03198716845290915290205460ff165b949350505050565b600281815481106104e557fe5b6000918252602090912001546001600160a01b0316905081565b6001602052600090815260409020546001600160a01b031681565b6001600160a01b031660009081526003602052604090205490565b60006c416c6c50726976696c6567657360981b831480610578575060008381526004602090815260408083206001600160e01b03198616845290915290205460ff165b9392505050565b6000546001600160a01b031633146105c7576040805162461bcd60e51b815260206004808301919091526024820152634f57303160e01b604482015290519081900360640190fd5b6105d0816105d3565b50565b6001600160a01b038116610630576040805162461bcd60e51b8152602060048083019190915260248201527f4f57303200000000000000000000000000000000000000000000000000000000604482015290519081900360640190fd5b600080546040516001600160a01b03808516939216917f8be0079c531659141344cd1fd0a4f28419497f9722a3daafe3b4186f6b6457e091a36000805473ffffffffffffffffffffffffffffffffffffffff19166001600160a01b039290921691909117905556fea265627a7a72315820129f525d5dce09bf4d585b6679aa5c9328f1057a47a63627f886b3fa5dfd942764736f6c634300050c0032",
  "source": "pragma solidity >=0.5.0 <0.6.0;\n\nimport \"./util/math/SafeMath.sol\";\nimport \"./operable/OperableStorage.sol\";\nimport \"./interface/IRule.sol\";\nimport \"./interface/IClaimable.sol\";\nimport \"./interface/IUserRegistry.sol\";\nimport \"./interface/IRatesProvider.sol\";\n\n\n/**\n * @title Token storage\n * @dev Token storage\n * @author Cyril Lapinte - <cyril.lapinte@openfiz.com>\n */\ncontract TokenStorage is OperableStorage {\n  using SafeMath for uint256;\n\n  enum TransferCode {\n    UNKNOWN,\n    OK,\n    INVALID_SENDER,\n    NO_RECIPIENT,\n    INSUFFICIENT_TOKENS,\n    LOCKED,\n    FROZEN,\n    RULE,\n    LIMITED_RECEPTION\n  }\n\n  struct Proof {\n    uint256 amount;\n    uint64 startAt;\n    uint64 endAt;\n  }\n\n  struct AuditData {\n    uint64 createdAt;\n    uint64 lastTransactionAt;\n    uint64 lastEmissionAt;\n    uint64 lastReceptionAt;\n    uint256 cumulatedEmission;\n    uint256 cumulatedReception;\n  }\n\n  struct AuditStorage {\n    mapping (address => bool) selector;\n\n    AuditData sharedData;\n    mapping(uint256 => AuditData) userData;\n    mapping(address => AuditData) addressData;\n  }\n\n  struct Lock {\n    uint256 startAt;\n    uint256 endAt;\n    mapping(address => bool) exceptions;\n  }\n\n  struct TokenData {\n    string name;\n    string symbol;\n    uint256 decimals;\n\n    uint256 totalSupply;\n    mapping (address => uint256) balances;\n    mapping (address => mapping (address => uint256)) allowed;\n\n    bool mintingFinished;\n\n    uint256 allTimeIssued; // potential overflow\n    uint256 allTimeRedeemed; // potential overflow\n    uint256 allTimeSeized; // potential overflow\n\n    mapping (address => Proof[]) proofs;\n    mapping (address => uint256) frozenUntils;\n\n    Lock lock;\n    IRule[] rules;\n    IClaimable[] claimables;\n  }\n  mapping (address => TokenData) internal tokens_;\n  mapping (address => mapping (uint256 => AuditStorage)) internal audits;\n\n  IUserRegistry internal userRegistry;\n  IRatesProvider internal ratesProvider;\n\n  bytes32 internal currency;\n  uint256[] internal userKeys;\n\n  string internal name_;\n\n  /**\n   * @dev currentTime()\n   */\n  function currentTime() internal view returns (uint64) {\n    // solhint-disable-next-line not-rely-on-time\n    return uint64(now);\n  }\n\n  event OraclesDefined(\n    IUserRegistry userRegistry,\n    IRatesProvider ratesProvider,\n    bytes32 currency,\n    uint256[] userKeys);\n  event AuditSelectorDefined(\n    address indexed scope, uint256 scopeId, address[] addresses, bool[] values);\n  event Issue(address indexed token, uint256 amount);\n  event Redeem(address indexed token, uint256 amount);\n  event Mint(address indexed token, uint256 amount);\n  event MintFinished(address indexed token);\n  event ProofCreated(address indexed token, address indexed holder, uint256 proofId);\n  event RulesDefined(address indexed token, IRule[] rules);\n  event LockDefined(\n    address indexed token,\n    uint256 startAt,\n    uint256 endAt,\n    address[] exceptions\n  );\n  event Seize(address indexed token, address account, uint256 amount);\n  event Freeze(address address_, uint256 until);\n  event ClaimablesDefined(address indexed token, IClaimable[] claimables);\n  event TokenDefined(\n    address indexed token,\n    uint256 delegateId,\n    string name,\n    string symbol,\n    uint256 decimals);\n  event TokenRemoved(address indexed token);\n}\n",
  "sourcePath": "/home/benjamin/work/clayer/contracts/c-layer-core/contracts/TokenStorage.sol",
  "compiler": {
    "name": "solc",
    "version": "0.5.12+commit.7709ece9.Emscripten.clang"
  },
  "schemaVersion": "3.0.23",
  "updatedAt": "2020-03-14T17:10:02.735Z",
  "devdoc": {
    "author": "Cyril Lapinte - <cyril.lapinte@openfiz.com>",
    "details": "Token storage",
    "methods": {
      "coreRole(address)": {
        "details": "core role",
        "params": {
          "_address": "operator address"
        }
      },
      "hasCorePrivilege(address,bytes4)": {
        "details": "hasCorePrivilege",
        "params": {
          "_address": "operator address"
        }
      },
      "hasProxyPrivilege(address,address,bytes4)": {
        "details": "hasProxyPrivilegethe default proxy role can be set with proxy address(0)",
        "params": {
          "_address": "operator address"
        }
      },
      "proxyRole(address,address)": {
        "details": "proxy role",
        "params": {
          "_address": "operator address"
        }
      },
      "renounceOwnership()": {
        "details": "Allows the current owner to relinquish control of the contract."
      },
      "roleHasPrivilege(bytes32,bytes4)": {
        "details": "roleHasPrivilege"
      },
      "rolePrivilege(bytes32,bytes4)": {
        "details": "has role privilegelow level access to role privilegeignores ALL_PRIVILEGES role"
      },
      "transferOwnership(address)": {
        "details": "Allows the current owner to transfer control of the contract to a newOwner.",
        "params": {
          "_newOwner": "The address to transfer ownership to."
        }
      }
    },
    "title": "Token storage"
  },
  "userdoc": {
    "methods": {}
  }
}