{
  "contractName": "TokenCore",
  "abi": [
    {
      "inputs": [
        {
          "internalType": "string",
          "name": "_name",
          "type": "string"
        },
        {
          "internalType": "address[]",
          "name": "_delegates",
          "type": "address[]"
        }
      ],
      "payable": false,
      "stateMutability": "nonpayable",
      "type": "constructor"
    },
    {
      "anonymous": false,
      "inputs": [
        {
          "indexed": true,
          "internalType": "address",
          "name": "scope",
          "type": "address"
        },
        {
          "indexed": false,
          "internalType": "uint256",
          "name": "scopeId",
          "type": "uint256"
        },
        {
          "indexed": false,
          "internalType": "address[]",
          "name": "addresses",
          "type": "address[]"
        },
        {
          "indexed": false,
          "internalType": "bool[]",
          "name": "values",
          "type": "bool[]"
        }
      ],
      "name": "AuditSelectorDefined",
      "type": "event"
    },
    {
      "anonymous": false,
      "inputs": [
        {
          "indexed": true,
          "internalType": "address",
          "name": "token",
          "type": "address"
        },
        {
          "indexed": false,
          "internalType": "contract IClaimable[]",
          "name": "claimables",
          "type": "address[]"
        }
      ],
      "name": "ClaimablesDefined",
      "type": "event"
    },
    {
      "anonymous": false,
      "inputs": [
        {
          "indexed": false,
          "internalType": "address",
          "name": "address_",
          "type": "address"
        },
        {
          "indexed": false,
          "internalType": "uint256",
          "name": "until",
          "type": "uint256"
        }
      ],
      "name": "Freeze",
      "type": "event"
    },
    {
      "anonymous": false,
      "inputs": [
        {
          "indexed": true,
          "internalType": "address",
          "name": "token",
          "type": "address"
        },
        {
          "indexed": false,
          "internalType": "uint256",
          "name": "amount",
          "type": "uint256"
        }
      ],
      "name": "Issue",
      "type": "event"
    },
    {
      "anonymous": false,
      "inputs": [
        {
          "indexed": true,
          "internalType": "address",
          "name": "token",
          "type": "address"
        },
        {
          "indexed": false,
          "internalType": "uint256",
          "name": "startAt",
          "type": "uint256"
        },
        {
          "indexed": false,
          "internalType": "uint256",
          "name": "endAt",
          "type": "uint256"
        },
        {
          "indexed": false,
          "internalType": "address[]",
          "name": "exceptions",
          "type": "address[]"
        }
      ],
      "name": "LockDefined",
      "type": "event"
    },
    {
      "anonymous": false,
      "inputs": [
        {
          "indexed": true,
          "internalType": "address",
          "name": "token",
          "type": "address"
        },
        {
          "indexed": false,
          "internalType": "uint256",
          "name": "amount",
          "type": "uint256"
        }
      ],
      "name": "Mint",
      "type": "event"
    },
    {
      "anonymous": false,
      "inputs": [
        {
          "indexed": true,
          "internalType": "address",
          "name": "token",
          "type": "address"
        }
      ],
      "name": "MintFinished",
      "type": "event"
    },
    {
      "anonymous": false,
      "inputs": [
        {
          "indexed": false,
          "internalType": "bytes32",
          "name": "role",
          "type": "bytes32"
        },
        {
          "indexed": false,
          "internalType": "address",
          "name": "operator",
          "type": "address"
        }
      ],
      "name": "OperatorAssigned",
      "type": "event"
    },
    {
      "anonymous": false,
      "inputs": [
        {
          "indexed": false,
          "internalType": "address",
          "name": "operator",
          "type": "address"
        }
      ],
      "name": "OperatorRevoked",
      "type": "event"
    },
    {
      "anonymous": false,
      "inputs": [
        {
          "indexed": false,
          "internalType": "contract IUserRegistry",
          "name": "userRegistry",
          "type": "address"
        },
        {
          "indexed": false,
          "internalType": "contract IRatesProvider",
          "name": "ratesProvider",
          "type": "address"
        },
        {
          "indexed": false,
          "internalType": "bytes32",
          "name": "currency",
          "type": "bytes32"
        },
        {
          "indexed": false,
          "internalType": "uint256[]",
          "name": "userKeys",
          "type": "uint256[]"
        }
      ],
      "name": "OraclesDefined",
      "type": "event"
    },
    {
      "anonymous": false,
      "inputs": [
        {
          "indexed": true,
          "internalType": "address",
          "name": "previousOwner",
          "type": "address"
        }
      ],
      "name": "OwnershipRenounced",
      "type": "event"
    },
    {
      "anonymous": false,
      "inputs": [
        {
          "indexed": true,
          "internalType": "address",
          "name": "previousOwner",
          "type": "address"
        },
        {
          "indexed": true,
          "internalType": "address",
          "name": "newOwner",
          "type": "address"
        }
      ],
      "name": "OwnershipTransferred",
      "type": "event"
    },
    {
      "anonymous": false,
      "inputs": [
        {
          "indexed": true,
          "internalType": "address",
          "name": "token",
          "type": "address"
        },
        {
          "indexed": true,
          "internalType": "address",
          "name": "holder",
          "type": "address"
        },
        {
          "indexed": false,
          "internalType": "uint256",
          "name": "proofId",
          "type": "uint256"
        }
      ],
      "name": "ProofCreated",
      "type": "event"
    },
    {
      "anonymous": false,
      "inputs": [
        {
          "indexed": false,
          "internalType": "address",
          "name": "proxy",
          "type": "address"
        },
        {
          "indexed": false,
          "internalType": "bytes32",
          "name": "role",
          "type": "bytes32"
        },
        {
          "indexed": false,
          "internalType": "address",
          "name": "operator",
          "type": "address"
        }
      ],
      "name": "ProxyOperatorAssigned",
      "type": "event"
    },
    {
      "anonymous": false,
      "inputs": [
        {
          "indexed": true,
          "internalType": "address",
          "name": "token",
          "type": "address"
        },
        {
          "indexed": false,
          "internalType": "uint256",
          "name": "amount",
          "type": "uint256"
        }
      ],
      "name": "Redeem",
      "type": "event"
    },
    {
      "anonymous": false,
      "inputs": [
        {
          "indexed": false,
          "internalType": "bytes32",
          "name": "role",
          "type": "bytes32"
        }
      ],
      "name": "RoleDefined",
      "type": "event"
    },
    {
      "anonymous": false,
      "inputs": [
        {
          "indexed": true,
          "internalType": "address",
          "name": "token",
          "type": "address"
        },
        {
          "indexed": false,
          "internalType": "contract IRule[]",
          "name": "rules",
          "type": "address[]"
        }
      ],
      "name": "RulesDefined",
      "type": "event"
    },
    {
      "anonymous": false,
      "inputs": [
        {
          "indexed": true,
          "internalType": "address",
          "name": "token",
          "type": "address"
        },
        {
          "indexed": false,
          "internalType": "address",
          "name": "account",
          "type": "address"
        },
        {
          "indexed": false,
          "internalType": "uint256",
          "name": "amount",
          "type": "uint256"
        }
      ],
      "name": "Seize",
      "type": "event"
    },
    {
      "anonymous": false,
      "inputs": [
        {
          "indexed": true,
          "internalType": "address",
          "name": "token",
          "type": "address"
        },
        {
          "indexed": false,
          "internalType": "uint256",
          "name": "delegateId",
          "type": "uint256"
        },
        {
          "indexed": false,
          "internalType": "string",
          "name": "name",
          "type": "string"
        },
        {
          "indexed": false,
          "internalType": "string",
          "name": "symbol",
          "type": "string"
        },
        {
          "indexed": false,
          "internalType": "uint256",
          "name": "decimals",
          "type": "uint256"
        }
      ],
      "name": "TokenDefined",
      "type": "event"
    },
    {
      "anonymous": false,
      "inputs": [
        {
          "indexed": true,
          "internalType": "address",
          "name": "token",
          "type": "address"
        }
      ],
      "name": "TokenRemoved",
      "type": "event"
    },
    {
      "constant": false,
      "inputs": [
        {
          "internalType": "bytes32",
          "name": "_role",
          "type": "bytes32"
        },
        {
          "internalType": "address[]",
          "name": "_operators",
          "type": "address[]"
        }
      ],
      "name": "assignOperators",
      "outputs": [
        {
          "internalType": "bool",
          "name": "",
          "type": "bool"
        }
      ],
      "payable": false,
      "stateMutability": "nonpayable",
      "type": "function"
    },
    {
      "constant": false,
      "inputs": [
        {
          "internalType": "address",
          "name": "_proxy",
          "type": "address"
        },
        {
          "internalType": "bytes32",
          "name": "_role",
          "type": "bytes32"
        },
        {
          "internalType": "address[]",
          "name": "_operators",
          "type": "address[]"
        }
      ],
      "name": "assignProxyOperators",
      "outputs": [
        {
          "internalType": "bool",
          "name": "",
          "type": "bool"
        }
      ],
      "payable": false,
      "stateMutability": "nonpayable",
      "type": "function"
    },
    {
      "constant": true,
      "inputs": [
        {
          "internalType": "address",
          "name": "_address",
          "type": "address"
        }
      ],
      "name": "coreRole",
      "outputs": [
        {
          "internalType": "bytes32",
          "name": "",
          "type": "bytes32"
        }
      ],
      "payable": false,
      "stateMutability": "view",
      "type": "function"
    },
    {
      "constant": false,
      "inputs": [
        {
          "internalType": "bytes32",
          "name": "_role",
          "type": "bytes32"
        },
        {
          "internalType": "bytes4[]",
          "name": "_privileges",
          "type": "bytes4[]"
        }
      ],
      "name": "defineRole",
      "outputs": [
        {
          "internalType": "bool",
          "name": "",
          "type": "bool"
        }
      ],
      "payable": false,
      "stateMutability": "nonpayable",
      "type": "function"
    },
    {
      "constant": true,
      "inputs": [
        {
          "internalType": "uint256",
          "name": "",
          "type": "uint256"
        }
      ],
      "name": "delegates",
      "outputs": [
        {
          "internalType": "address",
          "name": "",
          "type": "address"
        }
      ],
      "payable": false,
      "stateMutability": "view",
      "type": "function"
    },
    {
      "constant": true,
      "inputs": [
        {
          "internalType": "address",
          "name": "_address",
          "type": "address"
        },
        {
          "internalType": "bytes4",
          "name": "_privilege",
          "type": "bytes4"
        }
      ],
      "name": "hasCorePrivilege",
      "outputs": [
        {
          "internalType": "bool",
          "name": "",
          "type": "bool"
        }
      ],
      "payable": false,
      "stateMutability": "view",
      "type": "function"
    },
    {
      "constant": true,
      "inputs": [
        {
          "internalType": "address",
          "name": "_address",
          "type": "address"
        },
        {
          "internalType": "address",
          "name": "_proxy",
          "type": "address"
        },
        {
          "internalType": "bytes4",
          "name": "_privilege",
          "type": "bytes4"
        }
      ],
      "name": "hasProxyPrivilege",
      "outputs": [
        {
          "internalType": "bool",
          "name": "",
          "type": "bool"
        }
      ],
      "payable": false,
      "stateMutability": "view",
      "type": "function"
    },
    {
      "constant": true,
      "inputs": [],
      "name": "owner",
      "outputs": [
        {
          "internalType": "address",
          "name": "",
          "type": "address"
        }
      ],
      "payable": false,
      "stateMutability": "view",
      "type": "function"
    },
    {
      "constant": true,
      "inputs": [
        {
          "internalType": "address",
          "name": "",
          "type": "address"
        }
      ],
      "name": "proxyDelegates",
      "outputs": [
        {
          "internalType": "address",
          "name": "",
          "type": "address"
        }
      ],
      "payable": false,
      "stateMutability": "view",
      "type": "function"
    },
    {
      "constant": true,
      "inputs": [
        {
          "internalType": "address",
          "name": "_proxy",
          "type": "address"
        },
        {
          "internalType": "address",
          "name": "_address",
          "type": "address"
        }
      ],
      "name": "proxyRole",
      "outputs": [
        {
          "internalType": "bytes32",
          "name": "",
          "type": "bytes32"
        }
      ],
      "payable": false,
      "stateMutability": "view",
      "type": "function"
    },
    {
      "constant": false,
      "inputs": [],
      "name": "renounceOwnership",
      "outputs": [],
      "payable": false,
      "stateMutability": "nonpayable",
      "type": "function"
    },
    {
      "constant": false,
      "inputs": [
        {
          "internalType": "address[]",
          "name": "_operators",
          "type": "address[]"
        }
      ],
      "name": "revokeOperators",
      "outputs": [
        {
          "internalType": "bool",
          "name": "",
          "type": "bool"
        }
      ],
      "payable": false,
      "stateMutability": "nonpayable",
      "type": "function"
    },
    {
      "constant": true,
      "inputs": [
        {
          "internalType": "bytes32",
          "name": "_role",
          "type": "bytes32"
        },
        {
          "internalType": "bytes4",
          "name": "_privilege",
          "type": "bytes4"
        }
      ],
      "name": "roleHasPrivilege",
      "outputs": [
        {
          "internalType": "bool",
          "name": "",
          "type": "bool"
        }
      ],
      "payable": false,
      "stateMutability": "view",
      "type": "function"
    },
    {
      "constant": true,
      "inputs": [
        {
          "internalType": "bytes32",
          "name": "_role",
          "type": "bytes32"
        },
        {
          "internalType": "bytes4",
          "name": "_privilege",
          "type": "bytes4"
        }
      ],
      "name": "rolePrivilege",
      "outputs": [
        {
          "internalType": "bool",
          "name": "",
          "type": "bool"
        }
      ],
      "payable": false,
      "stateMutability": "view",
      "type": "function"
    },
    {
      "constant": false,
      "inputs": [
        {
          "internalType": "address",
          "name": "_newOwner",
          "type": "address"
        }
      ],
      "name": "transferOwnership",
      "outputs": [],
      "payable": false,
      "stateMutability": "nonpayable",
      "type": "function"
    },
    {
      "constant": true,
      "inputs": [],
      "name": "name",
      "outputs": [
        {
          "internalType": "string",
          "name": "",
          "type": "string"
        }
      ],
      "payable": false,
      "stateMutability": "view",
      "type": "function"
    },
    {
      "constant": true,
      "inputs": [],
      "name": "oracles",
      "outputs": [
        {
          "internalType": "contract IUserRegistry",
          "name": "",
          "type": "address"
        },
        {
          "internalType": "contract IRatesProvider",
          "name": "",
          "type": "address"
        },
        {
          "internalType": "bytes32",
          "name": "",
          "type": "bytes32"
        },
        {
          "internalType": "uint256[]",
          "name": "",
          "type": "uint256[]"
        }
      ],
      "payable": false,
      "stateMutability": "view",
      "type": "function"
    },
    {
      "constant": true,
      "inputs": [
        {
          "internalType": "address",
          "name": "_scope",
          "type": "address"
        },
        {
          "internalType": "uint256",
          "name": "_scopeId",
          "type": "uint256"
        },
        {
          "internalType": "address[]",
          "name": "_addresses",
          "type": "address[]"
        }
      ],
      "name": "auditSelector",
      "outputs": [
        {
          "internalType": "bool[]",
          "name": "",
          "type": "bool[]"
        }
      ],
      "payable": false,
      "stateMutability": "view",
      "type": "function"
    },
    {
      "constant": true,
      "inputs": [
        {
          "internalType": "address",
          "name": "_scope",
          "type": "address"
        },
        {
          "internalType": "uint256",
          "name": "_scopeId",
          "type": "uint256"
        }
      ],
      "name": "auditShared",
      "outputs": [
        {
          "internalType": "uint64",
          "name": "createdAt",
          "type": "uint64"
        },
        {
          "internalType": "uint64",
          "name": "lastTransactionAt",
          "type": "uint64"
        },
        {
          "internalType": "uint64",
          "name": "lastReceptionAt",
          "type": "uint64"
        },
        {
          "internalType": "uint64",
          "name": "lastEmissionAt",
          "type": "uint64"
        },
        {
          "internalType": "uint256",
          "name": "cumulatedReception",
          "type": "uint256"
        },
        {
          "internalType": "uint256",
          "name": "cumulatedEmission",
          "type": "uint256"
        }
      ],
      "payable": false,
      "stateMutability": "view",
      "type": "function"
    },
    {
      "constant": true,
      "inputs": [
        {
          "internalType": "address",
          "name": "_scope",
          "type": "address"
        },
        {
          "internalType": "uint256",
          "name": "_scopeId",
          "type": "uint256"
        },
        {
          "internalType": "uint256",
          "name": "_userId",
          "type": "uint256"
        }
      ],
      "name": "auditUser",
      "outputs": [
        {
          "internalType": "uint64",
          "name": "createdAt",
          "type": "uint64"
        },
        {
          "internalType": "uint64",
          "name": "lastTransactionAt",
          "type": "uint64"
        },
        {
          "internalType": "uint64",
          "name": "lastEmissionAt",
          "type": "uint64"
        },
        {
          "internalType": "uint64",
          "name": "lastReceptionAt",
          "type": "uint64"
        },
        {
          "internalType": "uint256",
          "name": "cumulatedEmission",
          "type": "uint256"
        },
        {
          "internalType": "uint256",
          "name": "cumulatedReception",
          "type": "uint256"
        }
      ],
      "payable": false,
      "stateMutability": "view",
      "type": "function"
    },
    {
      "constant": true,
      "inputs": [
        {
          "internalType": "address",
          "name": "_scope",
          "type": "address"
        },
        {
          "internalType": "uint256",
          "name": "_scopeId",
          "type": "uint256"
        },
        {
          "internalType": "address",
          "name": "_holder",
          "type": "address"
        }
      ],
      "name": "auditAddress",
      "outputs": [
        {
          "internalType": "uint64",
          "name": "createdAt",
          "type": "uint64"
        },
        {
          "internalType": "uint64",
          "name": "lastTransactionAt",
          "type": "uint64"
        },
        {
          "internalType": "uint64",
          "name": "lastReceptionAt",
          "type": "uint64"
        },
        {
          "internalType": "uint64",
          "name": "lastEmissionAt",
          "type": "uint64"
        },
        {
          "internalType": "uint256",
          "name": "cumulatedReception",
          "type": "uint256"
        },
        {
          "internalType": "uint256",
          "name": "cumulatedEmission",
          "type": "uint256"
        }
      ],
      "payable": false,
      "stateMutability": "view",
      "type": "function"
    },
    {
      "constant": true,
      "inputs": [],
      "name": "tokenName",
      "outputs": [
        {
          "internalType": "string",
          "name": "",
          "type": "string"
        }
      ],
      "payable": false,
      "stateMutability": "view",
      "type": "function"
    },
    {
      "constant": true,
      "inputs": [],
      "name": "tokenSymbol",
      "outputs": [
        {
          "internalType": "string",
          "name": "",
          "type": "string"
        }
      ],
      "payable": false,
      "stateMutability": "view",
      "type": "function"
    },
    {
      "constant": true,
      "inputs": [],
      "name": "tokenDecimals",
      "outputs": [
        {
          "internalType": "uint256",
          "name": "",
          "type": "uint256"
        }
      ],
      "payable": false,
      "stateMutability": "view",
      "type": "function"
    },
    {
      "constant": true,
      "inputs": [],
      "name": "tokenTotalSupply",
      "outputs": [
        {
          "internalType": "uint256",
          "name": "",
          "type": "uint256"
        }
      ],
      "payable": false,
      "stateMutability": "view",
      "type": "function"
    },
    {
      "constant": true,
      "inputs": [
        {
          "internalType": "address",
          "name": "_owner",
          "type": "address"
        }
      ],
      "name": "tokenBalanceOf",
      "outputs": [
        {
          "internalType": "uint256",
          "name": "",
          "type": "uint256"
        }
      ],
      "payable": false,
      "stateMutability": "view",
      "type": "function"
    },
    {
      "constant": true,
      "inputs": [
        {
          "internalType": "address",
          "name": "_owner",
          "type": "address"
        },
        {
          "internalType": "address",
          "name": "_spender",
          "type": "address"
        }
      ],
      "name": "tokenAllowance",
      "outputs": [
        {
          "internalType": "uint256",
          "name": "",
          "type": "uint256"
        }
      ],
      "payable": false,
      "stateMutability": "view",
      "type": "function"
    },
    {
      "constant": false,
      "inputs": [
        {
          "internalType": "address",
          "name": "",
          "type": "address"
        },
        {
          "internalType": "address",
          "name": "",
          "type": "address"
        },
        {
          "internalType": "uint256",
          "name": "",
          "type": "uint256"
        }
      ],
      "name": "transfer",
      "outputs": [
        {
          "internalType": "bool",
          "name": "status",
          "type": "bool"
        }
      ],
      "payable": false,
      "stateMutability": "nonpayable",
      "type": "function"
    },
    {
      "constant": false,
      "inputs": [
        {
          "internalType": "address",
          "name": "",
          "type": "address"
        },
        {
          "internalType": "address",
          "name": "",
          "type": "address"
        },
        {
          "internalType": "address",
          "name": "",
          "type": "address"
        },
        {
          "internalType": "uint256",
          "name": "",
          "type": "uint256"
        }
      ],
      "name": "transferFrom",
      "outputs": [
        {
          "internalType": "bool",
          "name": "status",
          "type": "bool"
        }
      ],
      "payable": false,
      "stateMutability": "nonpayable",
      "type": "function"
    },
    {
      "constant": false,
      "inputs": [
        {
          "internalType": "address",
          "name": "",
          "type": "address"
        },
        {
          "internalType": "address",
          "name": "",
          "type": "address"
        },
        {
          "internalType": "uint256",
          "name": "",
          "type": "uint256"
        }
      ],
      "name": "approve",
      "outputs": [
        {
          "internalType": "bool",
          "name": "status",
          "type": "bool"
        }
      ],
      "payable": false,
      "stateMutability": "nonpayable",
      "type": "function"
    },
    {
      "constant": false,
      "inputs": [
        {
          "internalType": "address",
          "name": "",
          "type": "address"
        },
        {
          "internalType": "address",
          "name": "",
          "type": "address"
        },
        {
          "internalType": "uint256",
          "name": "",
          "type": "uint256"
        }
      ],
      "name": "increaseApproval",
      "outputs": [
        {
          "internalType": "bool",
          "name": "status",
          "type": "bool"
        }
      ],
      "payable": false,
      "stateMutability": "nonpayable",
      "type": "function"
    },
    {
      "constant": false,
      "inputs": [
        {
          "internalType": "address",
          "name": "",
          "type": "address"
        },
        {
          "internalType": "address",
          "name": "",
          "type": "address"
        },
        {
          "internalType": "uint256",
          "name": "",
          "type": "uint256"
        }
      ],
      "name": "decreaseApproval",
      "outputs": [
        {
          "internalType": "bool",
          "name": "status",
          "type": "bool"
        }
      ],
      "payable": false,
      "stateMutability": "nonpayable",
      "type": "function"
    },
    {
      "constant": false,
      "inputs": [
        {
          "internalType": "address",
          "name": "",
          "type": "address"
        },
        {
          "internalType": "address",
          "name": "",
          "type": "address"
        },
        {
          "internalType": "uint256",
          "name": "",
          "type": "uint256"
        }
      ],
      "name": "canTransfer",
      "outputs": [
        {
          "internalType": "uint256",
          "name": "",
          "type": "uint256"
        }
      ],
      "payable": false,
      "stateMutability": "nonpayable",
      "type": "function"
    },
    {
      "constant": true,
      "inputs": [
        {
          "internalType": "address",
          "name": "_token",
          "type": "address"
        }
      ],
      "name": "token",
      "outputs": [
        {
          "internalType": "bool",
          "name": "mintingFinished",
          "type": "bool"
        },
        {
          "internalType": "uint256",
          "name": "allTimeIssued",
          "type": "uint256"
        },
        {
          "internalType": "uint256",
          "name": "allTimeRedeemed",
          "type": "uint256"
        },
        {
          "internalType": "uint256",
          "name": "allTimeSeized",
          "type": "uint256"
        },
        {
          "internalType": "uint256[2]",
          "name": "lock",
          "type": "uint256[2]"
        },
        {
          "internalType": "uint256",
          "name": "frozenUntil",
          "type": "uint256"
        },
        {
          "internalType": "contract IRule[]",
          "name": "rules",
          "type": "address[]"
        },
        {
          "internalType": "contract IClaimable[]",
          "name": "claimables",
          "type": "address[]"
        }
      ],
      "payable": false,
      "stateMutability": "view",
      "type": "function"
    },
    {
      "constant": true,
      "inputs": [
        {
          "internalType": "address",
          "name": "_token",
          "type": "address"
        },
        {
          "internalType": "address",
          "name": "_holder",
          "type": "address"
        },
        {
          "internalType": "uint256",
          "name": "_proofId",
          "type": "uint256"
        }
      ],
      "name": "tokenProofs",
      "outputs": [
        {
          "internalType": "uint256",
          "name": "",
          "type": "uint256"
        },
        {
          "internalType": "uint64",
          "name": "",
          "type": "uint64"
        },
        {
          "internalType": "uint64",
          "name": "",
          "type": "uint64"
        }
      ],
      "payable": false,
      "stateMutability": "view",
      "type": "function"
    },
    {
      "constant": false,
      "inputs": [
        {
          "internalType": "address",
          "name": "_token",
          "type": "address"
        },
        {
          "internalType": "uint256",
          "name": "",
          "type": "uint256"
        }
      ],
      "name": "issue",
      "outputs": [
        {
          "internalType": "bool",
          "name": "",
          "type": "bool"
        }
      ],
      "payable": false,
      "stateMutability": "nonpayable",
      "type": "function"
    },
    {
      "constant": false,
      "inputs": [
        {
          "internalType": "address",
          "name": "_token",
          "type": "address"
        },
        {
          "internalType": "uint256",
          "name": "",
          "type": "uint256"
        }
      ],
      "name": "redeem",
      "outputs": [
        {
          "internalType": "bool",
          "name": "",
          "type": "bool"
        }
      ],
      "payable": false,
      "stateMutability": "nonpayable",
      "type": "function"
    },
    {
      "constant": false,
      "inputs": [
        {
          "internalType": "address",
          "name": "_token",
          "type": "address"
        },
        {
          "internalType": "address",
          "name": "",
          "type": "address"
        },
        {
          "internalType": "uint256",
          "name": "",
          "type": "uint256"
        }
      ],
      "name": "mint",
      "outputs": [
        {
          "internalType": "bool",
          "name": "",
          "type": "bool"
        }
      ],
      "payable": false,
      "stateMutability": "nonpayable",
      "type": "function"
    },
    {
      "constant": false,
      "inputs": [
        {
          "internalType": "address",
          "name": "_token",
          "type": "address"
        }
      ],
      "name": "finishMinting",
      "outputs": [
        {
          "internalType": "bool",
          "name": "",
          "type": "bool"
        }
      ],
      "payable": false,
      "stateMutability": "nonpayable",
      "type": "function"
    },
    {
      "constant": false,
      "inputs": [
        {
          "internalType": "address",
          "name": "_token",
          "type": "address"
        },
        {
          "internalType": "address[]",
          "name": "",
          "type": "address[]"
        },
        {
          "internalType": "uint256[]",
          "name": "",
          "type": "uint256[]"
        }
      ],
      "name": "mintAtOnce",
      "outputs": [
        {
          "internalType": "bool",
          "name": "",
          "type": "bool"
        }
      ],
      "payable": false,
      "stateMutability": "nonpayable",
      "type": "function"
    },
    {
      "constant": false,
      "inputs": [
        {
          "internalType": "address",
          "name": "_token",
          "type": "address"
        },
        {
          "internalType": "address",
          "name": "",
          "type": "address"
        },
        {
          "internalType": "uint256",
          "name": "",
          "type": "uint256"
        }
      ],
      "name": "seize",
      "outputs": [
        {
          "internalType": "bool",
          "name": "",
          "type": "bool"
        }
      ],
      "payable": false,
      "stateMutability": "nonpayable",
      "type": "function"
    },
    {
      "constant": false,
      "inputs": [
        {
          "internalType": "address",
          "name": "_token",
          "type": "address"
        },
        {
          "internalType": "address[]",
          "name": "",
          "type": "address[]"
        },
        {
          "internalType": "uint256",
          "name": "",
          "type": "uint256"
        }
      ],
      "name": "freezeManyAddresses",
      "outputs": [
        {
          "internalType": "bool",
          "name": "",
          "type": "bool"
        }
      ],
      "payable": false,
      "stateMutability": "nonpayable",
      "type": "function"
    },
    {
      "constant": false,
      "inputs": [
        {
          "internalType": "address",
          "name": "_token",
          "type": "address"
        },
        {
          "internalType": "address",
          "name": "",
          "type": "address"
        }
      ],
      "name": "createProof",
      "outputs": [
        {
          "internalType": "bool",
          "name": "",
          "type": "bool"
        }
      ],
      "payable": false,
      "stateMutability": "nonpayable",
      "type": "function"
    },
    {
      "constant": false,
      "inputs": [
        {
          "internalType": "address",
          "name": "_token",
          "type": "address"
        },
        {
          "internalType": "uint256",
          "name": "",
          "type": "uint256"
        },
        {
          "internalType": "uint256",
          "name": "",
          "type": "uint256"
        },
        {
          "internalType": "address[]",
          "name": "",
          "type": "address[]"
        }
      ],
      "name": "defineLock",
      "outputs": [
        {
          "internalType": "bool",
          "name": "",
          "type": "bool"
        }
      ],
      "payable": false,
      "stateMutability": "nonpayable",
      "type": "function"
    },
    {
      "constant": false,
      "inputs": [
        {
          "internalType": "address",
          "name": "_token",
          "type": "address"
        },
        {
          "internalType": "contract IRule[]",
          "name": "",
          "type": "address[]"
        }
      ],
      "name": "defineRules",
      "outputs": [
        {
          "internalType": "bool",
          "name": "",
          "type": "bool"
        }
      ],
      "payable": false,
      "stateMutability": "nonpayable",
      "type": "function"
    },
    {
      "constant": false,
      "inputs": [
        {
          "internalType": "address",
          "name": "_token",
          "type": "address"
        },
        {
          "internalType": "contract IClaimable[]",
          "name": "",
          "type": "address[]"
        }
      ],
      "name": "defineClaimables",
      "outputs": [
        {
          "internalType": "bool",
          "name": "",
          "type": "bool"
        }
      ],
      "payable": false,
      "stateMutability": "nonpayable",
      "type": "function"
    },
    {
      "constant": false,
      "inputs": [
        {
          "internalType": "address",
          "name": "_token",
          "type": "address"
        },
        {
          "internalType": "uint256",
          "name": "_delegateId",
          "type": "uint256"
        },
        {
          "internalType": "string",
          "name": "_name",
          "type": "string"
        },
        {
          "internalType": "string",
          "name": "_symbol",
          "type": "string"
        },
        {
          "internalType": "uint256",
          "name": "_decimals",
          "type": "uint256"
        }
      ],
      "name": "defineToken",
      "outputs": [
        {
          "internalType": "bool",
          "name": "",
          "type": "bool"
        }
      ],
      "payable": false,
      "stateMutability": "nonpayable",
      "type": "function"
    },
    {
      "constant": false,
      "inputs": [
        {
          "internalType": "address",
          "name": "_token",
          "type": "address"
        }
      ],
      "name": "removeToken",
      "outputs": [
        {
          "internalType": "bool",
          "name": "",
          "type": "bool"
        }
      ],
      "payable": false,
      "stateMutability": "nonpayable",
      "type": "function"
    },
    {
      "constant": false,
      "inputs": [
        {
          "internalType": "contract IUserRegistry",
          "name": "_userRegistry",
          "type": "address"
        },
        {
          "internalType": "contract IRatesProvider",
          "name": "_ratesProvider",
          "type": "address"
        },
        {
          "internalType": "uint256[]",
          "name": "_userKeys",
          "type": "uint256[]"
        }
      ],
      "name": "defineOracles",
      "outputs": [
        {
          "internalType": "bool",
          "name": "",
          "type": "bool"
        }
      ],
      "payable": false,
      "stateMutability": "nonpayable",
      "type": "function"
    },
    {
      "constant": false,
      "inputs": [
        {
          "internalType": "address",
          "name": "_scope",
          "type": "address"
        },
        {
          "internalType": "uint256",
          "name": "_scopeId",
          "type": "uint256"
        },
        {
          "internalType": "address[]",
          "name": "_selectorAddresses",
          "type": "address[]"
        },
        {
          "internalType": "bool[]",
          "name": "_selectorValues",
          "type": "bool[]"
        }
      ],
      "name": "defineAuditSelector",
      "outputs": [
        {
          "internalType": "bool",
          "name": "",
          "type": "bool"
        }
      ],
      "payable": false,
      "stateMutability": "nonpayable",
      "type": "function"
    }
  ],
  "bytecode": "0x60806040523480156200001157600080fd5b506040516200388838038062003888833981810160405260408110156200003757600080fd5b81019080805160405193929190846401000000008211156200005857600080fd5b9083019060208201858111156200006e57600080fd5b82516401000000008111828201881017156200008957600080fd5b82525081516020918201929091019080838360005b83811015620000b85781810151838201526020016200009e565b50505050905090810190601f168015620000e65780820380516001836020036101000a031916815260200191505b50604052602001805160405193929190846401000000008211156200010a57600080fd5b9083019060208201858111156200012057600080fd5b82518660208202830111640100000000821117156200013e57600080fd5b82525081516020918201928201910280838360005b838110156200016d57818101518382015260200162000153565b50505050919091016040908152600080546001600160a01b0319163390811782558152600360209081528282207f416c6c50726976696c656765730000000000000000000000000000000000000080825569416c6c50726f786965738452600191909101825292909120919091558651620001f49550600b94509087019250905062000213565b5080516200020a90600290602084019062000298565b50505062000345565b828054600181600116156101000203166002900490600052602060002090601f016020900481019282601f106200025657805160ff191683800117855562000286565b8280016001018555821562000286579182015b828111156200028657825182559160200191906001019062000269565b5062000294929150620002fe565b5090565b828054828255906000526020600020908101928215620002f0579160200282015b82811115620002f057825182546001600160a01b0319166001600160a01b03909116178255602090920191600190910190620002b9565b50620002949291506200031e565b6200031b91905b8082111562000294576000815560010162000305565b90565b6200031b91905b80821115620002945780546001600160a01b031916815560010162000325565b61353380620003556000396000f3fe608060405234801561001057600080fd5b50600436106103365760003560e01c80639cf8c32a116101b2578063d5e444f6116100f9578063e46638e6116100a2578063f019c2671161007c578063f019c26714610f03578063f2fde38b146113e0578063f597be9f14611406578063f7abab9e146114bb57610336565b8063e46638e6146112ce578063e68fdc5f14611304578063edea6b06146113ae57610336565b8063e1f21c67116100d3578063e1f21c6714610f03578063e3880ec614611164578063e42c08f2146112a857610336565b8063d5e444f61461102e578063db4871031461105b578063ddd0d637146110ba57610336565b8063bcdd61211161015b578063c4deb47811610135578063c4deb47814610f5f578063c6c3bbe614610ea7578063cff395d714610f8b57610336565b8063bcdd612114610f03578063beabacc814610f03578063c4697c2114610f3957610336565b8063b1548afc1161018c578063b1548afc14610e8a578063b2a02ff114610ea7578063b5fa131014610edd57610336565b80639cf8c32a14610d1e578063a4ccc0a214610d4c578063afd5b0c714610e5457610336565b806346db70fb11610281578063761922001161022a5780637bcfc0e1116102045780637bcfc0e114610c15578063867904b4146105835780638c677bac14610ccd5780638da5cb5b14610cfa57610336565b80637619220014610aab57806377b4056914610ad15780637b61c32014610c0d57610336565b80636c02a9311161025b5780636c02a931146109875780636d46a1db1461098f578063715018a614610aa157610336565b806346db70fb146108f25780635fa7b5841461092057806368da830c1461094657610336565b80632719390d116102e35780632b687519116102bd5780632b687519146105af5780633b97e856146107b35780633e092f56146107bb57610336565b80632719390d146105af5780632857373a146106625780632acc6143146106f757610336565b8063198cea2311610314578063198cea23146104485780631a72a824146105075780631e9a69501461058357610336565b806306fdde031461033b578063119c1c23146103b857806315dacbea146103f8575b600080fd5b6103436114c3565b6040805160208082528351818301528351919283929083019185019080838360005b8381101561037d578181015183820152602001610365565b50505050905090810190601f1680156103aa5780820380516001836020036101000a031916815260200191505b509250505060405180910390f35b6103e6600480360360408110156103ce57600080fd5b506001600160a01b038135811691602001351661155a565b60408051918252519081900360200190f35b6104346004803603608081101561040e57600080fd5b506001600160a01b03813581169160208101358216916040820135169060600135611591565b604080519115158252519081900360200190f35b6104346004803603608081101561045e57600080fd5b6001600160a01b03823516916020810135916040820135919081019060808101606082013564010000000081111561049557600080fd5b8201836020820111156104a757600080fd5b803590602001918460208302840111640100000000831117156104c957600080fd5b9190808060200260200160405190810160405280939291908181526020018383602002808284376000920191909152509295506115f6945050505050565b61053d6004803603606081101561051d57600080fd5b506001600160a01b0381358116916020810135916040909101351661165d565b6040805167ffffffffffffffff9788168152958716602087015293861685850152919094166060840152608083019390935260a082019290925290519081900360c00190f35b6104346004803603604081101561059957600080fd5b506001600160a01b038135169060200135611718565b610434600480360360408110156105c557600080fd5b6001600160a01b0382351691908101906040810160208201356401000000008111156105f057600080fd5b82018360208201111561060257600080fd5b8035906020019184602083028401116401000000008311171561062457600080fd5b919080806020026020016040519081016040528093929190818152602001838360200280828437600092019190915250929550611718945050505050565b61066a61177d565b60405180856001600160a01b03166001600160a01b03168152602001846001600160a01b03166001600160a01b0316815260200183815260200180602001828103825283818151815260200191508051906020019060200280838360005b838110156106e05781810151838201526020016106c8565b505050509050019550505050505060405180910390f35b6104346004803603606081101561070d57600080fd5b6001600160a01b03823581169260208101359091169181019060608101604082013564010000000081111561074157600080fd5b82018360208201111561075357600080fd5b8035906020019184602083028401116401000000008311171561077557600080fd5b919080806020026020016040519081016040528093929190818152602001838360200280828437600092019190915250929550611801945050505050565b6103e6611a7f565b610434600480360360608110156107d157600080fd5b6001600160a01b0382351691908101906040810160208201356401000000008111156107fc57600080fd5b82018360208201111561080e57600080fd5b8035906020019184602083028401116401000000008311171561083057600080fd5b919080806020026020016040519081016040528093929190818152602001838360200280828437600092019190915250929594936020810193503591505064010000000081111561088057600080fd5b82018360208201111561089257600080fd5b803590602001918460208302840111640100000000831117156108b457600080fd5b919080806020026020016040519081016040528093929190818152602001838360200280828437600092019190915250929550611a95945050505050565b6104346004803603604081101561090857600080fd5b506001600160a01b0381358116916020013516611af2565b6104346004803603602081101561093657600080fd5b50356001600160a01b0316611b04565b6104346004803603606081101561095c57600080fd5b5080356001600160a01b0390811691602081013590911690604001356001600160e01b031916611c2a565b610343611ce7565b6109b5600480360360208110156109a557600080fd5b50356001600160a01b0316611d52565b604051808915151515815260200188815260200187815260200186815260200185600260200280838360005b838110156109f95781810151838201526020016109e1565b505050509050018481526020018060200180602001838103835285818151815260200191508051906020019060200280838360005b83811015610a46578181015183820152602001610a2e565b50505050905001838103825284818151815260200191508051906020019060200280838360005b83811015610a85578181015183820152602001610a6d565b505050509050019a505050505050505050505060405180910390f35b610aa9611e91565b005b61043460048036036020811015610ac157600080fd5b50356001600160a01b0316611f21565b61043460048036036080811015610ae757600080fd5b6001600160a01b0382351691602081013591810190606081016040820135640100000000811115610b1757600080fd5b820183602082011115610b2957600080fd5b80359060200191846020830284011164010000000083111715610b4b57600080fd5b9190808060200260200160405190810160405280939291908181526020018383602002808284376000920191909152509295949360208101935035915050640100000000811115610b9b57600080fd5b820183602082011115610bad57600080fd5b80359060200191846020830284011164010000000083111715610bcf57600080fd5b919080806020026020016040519081016040528093929190818152602001838360200280828437600092019190915250929550611f87945050505050565b610343612199565b61043460048036036060811015610c2b57600080fd5b6001600160a01b0382351691602081013591810190606081016040820135640100000000811115610c5b57600080fd5b820183602082011115610c6d57600080fd5b80359060200191846020830284011164010000000083111715610c8f57600080fd5b91908080602002602001604051908101604052809392919081815260200183836020028082843760009201919091525092955061220b945050505050565b61043460048036036040811015610ce357600080fd5b50803590602001356001600160e01b031916612370565b610d0261239c565b604080516001600160a01b039092168252519081900360200190f35b6103e660048036036040811015610d3457600080fd5b506001600160a01b03813581169160200135166123ab565b610e0460048036036060811015610d6257600080fd5b6001600160a01b0382351691602081013591810190606081016040820135640100000000811115610d9257600080fd5b820183602082011115610da457600080fd5b80359060200191846020830284011164010000000083111715610dc657600080fd5b9190808060200260200160405190810160405280939291908181526020018383602002808284376000920191909152509295506123db945050505050565b60408051602080825283518183015283519192839290830191858101910280838360005b83811015610e40578181015183820152602001610e28565b505050509050019250505060405180910390f35b61043460048036036040811015610e6a57600080fd5b5080356001600160a01b031690602001356001600160e01b0319166124b3565b610d0260048036036020811015610ea057600080fd5b5035612515565b61043460048036036060811015610ebd57600080fd5b506001600160a01b03813581169160208101359091169060400135611a95565b610d0260048036036020811015610ef357600080fd5b50356001600160a01b031661253c565b61043460048036036060811015610f1957600080fd5b506001600160a01b03813581169160208101359091169060400135612557565b6103e660048036036020811015610f4f57600080fd5b50356001600160a01b03166125b3565b61053d60048036036040811015610f7557600080fd5b506001600160a01b0381351690602001356125ce565b61043460048036036020811015610fa157600080fd5b810190602081018135640100000000811115610fbc57600080fd5b820183602082011115610fce57600080fd5b80359060200191846020830284011164010000000083111715610ff057600080fd5b91908080602002602001604051908101604052809392919081815260200183836020028082843760009201919091525092955061267f945050505050565b6104346004803603604081101561104457600080fd5b50803590602001356001600160e01b0319166127a0565b6110916004803603606081101561107157600080fd5b506001600160a01b038135811691602081013590911690604001356127e8565b6040805193845267ffffffffffffffff9283166020850152911682820152519081900360600190f35b610434600480360360408110156110d057600080fd5b813591908101906040810160208201356401000000008111156110f257600080fd5b82018360208201111561110457600080fd5b8035906020019184602083028401116401000000008311171561112657600080fd5b919080806020026020016040519081016040528093929190818152602001838360200280828437600092019190915250929550612885945050505050565b610434600480360360a081101561117a57600080fd5b6001600160a01b03823516916020810135918101906060810160408201356401000000008111156111aa57600080fd5b8201836020820111156111bc57600080fd5b803590602001918460018302840111640100000000831117156111de57600080fd5b91908080601f016020809104026020016040519081016040528093929190818152602001838380828437600092019190915250929594936020810193503591505064010000000081111561123157600080fd5b82018360208201111561124357600080fd5b8035906020019184600183028401116401000000008311171561126557600080fd5b91908080601f01602080910402602001604051908101604052809392919081815260200183838082843760009201919091525092955050913592506129ac915050565b6103e6600480360360208110156112be57600080fd5b50356001600160a01b0316612be7565b6103e6600480360360608110156112e457600080fd5b506001600160a01b03813581169160208101359091169060400135612c13565b6104346004803603604081101561131a57600080fd5b8135919081019060408101602082013564010000000081111561133c57600080fd5b82018360208201111561134e57600080fd5b8035906020019184602083028401116401000000008311171561137057600080fd5b919080806020026020016040519081016040528093929190818152602001838360200280828437600092019190915250929550612c6f945050505050565b61053d600480360360608110156113c457600080fd5b506001600160a01b038135169060208101359060400135612de7565b610aa9600480360360208110156113f657600080fd5b50356001600160a01b0316612ea2565b6104346004803603606081101561141c57600080fd5b6001600160a01b03823516919081019060408101602082013564010000000081111561144757600080fd5b82018360208201111561145957600080fd5b8035906020019184602083028401116401000000008311171561147b57600080fd5b9190808060200260200160405190810160405280939291908181526020018383602002808284376000920191909152509295505091359250611a95915050565b6103e6612ef6565b600b8054604080516020601f600260001961010060018816150201909516949094049384018190048102820181019092528281526060939092909183018282801561154f5780601f106115245761010080835404028352916020019161154f565b820191906000526020600020905b81548152906001019060200180831161153257829003601f168201915b505050505090505b90565b3360009081526005602081815260408084206001600160a01b03878116865293018252808420928516845291905290205492915050565b336000908152600160205260408120546001600160a01b03166115e4576040805162461bcd60e51b81526020600480830191909152602482015263434f303160e01b604482015290519081900360640190fd5b6115ed33612f0c565b95945050505050565b60008461161033826000356001600160e01b031916611c2a565b61164a576040805162461bcd60e51b815260206004808301919091526024820152634f43303360e01b604482015290519081900360640190fd5b61165386612f0c565b9695505050505050565b60008060008060008061166e613377565b505050506001600160a01b03958616600090815260066020908152604080832097835296815286822095909716815260059094018652505050819020815160c081018352815467ffffffffffffffff8082168084526801000000000000000083048216968401879052600160801b83048216958401869052600160c01b909204166060830181905260018401546080840181905260029094015460a0909301839052909590939290565b60008261173233826000356001600160e01b031916611c2a565b61176c576040805162461bcd60e51b815260206004808301919091526024820152634f43303360e01b604482015290519081900360640190fd5b61177584612f0c565b949350505050565b600754600854600954600a805460408051602080840282018101909252828152600096879687966060966001600160a01b0393841696929093169490939183918301828280156117ec57602002820191906000526020600020905b8154815260200190600101908083116117d8575b50505050509050935093509350935090919293565b6000611819336000356001600160e01b0319166124b3565b611853576040805162461bcd60e51b8152602060048083019190915260248201526327a1981960e11b604482015290519081900360640190fd5b6009541561191c57600954846001600160a01b031663e5a6b10f6040518163ffffffff1660e01b815260040160206040518083038186803b15801561189757600080fd5b505afa1580156118ab573d6000803e3d6000fd5b505050506040513d60208110156118c157600080fd5b505114611917576040805162461bcd60e51b8152602060048083019190915260248201527f5443303200000000000000000000000000000000000000000000000000000000604482015290519081900360640190fd5b611985565b836001600160a01b031663e5a6b10f6040518163ffffffff1660e01b815260040160206040518083038186803b15801561195557600080fd5b505afa158015611969573d6000803e3d6000fd5b505050506040513d602081101561197f57600080fd5b50516009555b600780546001600160a01b038087166001600160a01b031992831617909255600880549286169290911691909117905581516119c890600a9060208501906133ac565b50600754600854600954604080516001600160a01b039485168082529390941660208501819052908401829052608060608501818152600a80549287018390527f2017667975c8e3d90e438ec487c2c1ac13babdb357d9859459ba19ebec95b0f896939493909290919060a083019084908015611a6457602002820191906000526020600020905b815481526020019060010190808311611a50575b50509550505050505060405180910390a15060019392505050565b3360009081526005602052604090206002015490565b600083611aaf33826000356001600160e01b031916611c2a565b611ae9576040805162461bcd60e51b815260206004808301919091526024820152634f43303360e01b604482015290519081900360640190fd5b6115ed85612f0c565b6000611afd83612f0c565b9392505050565b6000611b1c336000356001600160e01b0319166124b3565b611b56576040805162461bcd60e51b8152602060048083019190915260248201526327a1981960e11b604482015290519081900360640190fd5b611b5f8261301f565b506001600160a01b038216600090815260056020526040812090611b8382826133f7565b611b916001830160006133f7565b6000600283018190556003830181905560068301805460ff19169055600783018190556008830181905560098301819055600c8301819055600d8301819055611bde90600f84019061343b565b611bec60108301600061343b565b50506040516001600160a01b038316907f4c910b69fe65a61f7531b9c5042b2329ca7179c77290aa7e2eb3afa3c8511fd390600090a2506001919050565b6001600160a01b0380841660009081526003602090815260408083209386168352600184019091528120549091908290611c7f5769416c6c50726f786965736000908152600183016020526040902054611c9b565b6001600160a01b03851660009081526001830160205260409020545b90506c416c6c50726976696c6567657360981b811480611653575060008181526004602090815260408083206001600160e01b03198816845290915290205460ff169695505050505050565b3360009081526005602090815260409182902080548351601f600260001961010060018616150201909316929092049182018490048402810184019094528084526060939283018282801561154f5780601f106115245761010080835404028352916020019161154f565b600080600080611d60613459565b5050506001600160a01b0383166000908152600560209081526040808320600681015460078201546008830154600984015485518087018752600c8601548152600d86015481890152338952600b860188529786902054600f860180548851818b0281018b0190995280895260ff9096169b5093995091979096909591946060948594919392830182828015611e1f57602002820191906000526020600020905b81546001600160a01b03168152600190910190602001808311611e01575b5050505050925080601001805480602002602001604051908101604052809291908181526020018280548015611e7e57602002820191906000526020600020905b81546001600160a01b03168152600190910190602001808311611e60575b5050505050915050919395975091939597565b6000546001600160a01b03163314611ed9576040805162461bcd60e51b815260206004808301919091526024820152634f57303160e01b604482015290519081900360640190fd5b600080546040516001600160a01b03909116917ff8df31144d9c2f0f6b59d69b8b98abd5459d07f2742c4df920b25aae33c6482091a2600080546001600160a01b0319169055565b600081611f3b33826000356001600160e01b031916611c2a565b611f75576040805162461bcd60e51b815260206004808301919091526024820152634f43303360e01b604482015290519081900360640190fd5b611f7e83612f0c565b91505b50919050565b6000611f9f336000356001600160e01b0319166124b3565b611fd9576040805162461bcd60e51b8152602060048083019190915260248201526327a1981960e11b604482015290519081900360640190fd5b8151835114612031576040805162461bcd60e51b8152602060048083019190915260248201527f5443303300000000000000000000000000000000000000000000000000000000604482015290519081900360640190fd5b6001600160a01b03851660009081526006602090815260408083208784529091528120905b84518110156120bf5783818151811061206b57fe5b602002602001015182600001600087848151811061208557fe5b6020908102919091018101516001600160a01b03168252810191909152604001600020805460ff1916911515919091179055600101612056565b50856001600160a01b03167f2cae31f12bce7a8c857523f486ac649b4cb5f270fcd381c2b02b4c98761ec779868686604051808481526020018060200180602001838103835285818151815260200191508051906020019060200280838360005b83811015612138578181015183820152602001612120565b50505050905001838103825284818151815260200191508051906020019060200280838360005b8381101561217757818101518382015260200161215f565b505050509050019550505050505060405180910390a250600195945050505050565b33600090815260056020908152604091829020600190810180548451600293821615610100026000190190911692909204601f8101849004840283018401909452838252606093919290919083018282801561154f5780601f106115245761010080835404028352916020019161154f565b600080546001600160a01b03163314806122365750612236336000356001600160e01b0319166124b3565b612270576040805162461bcd60e51b815260206004808301919091526024820152634f43303160e01b604482015290519081900360640190fd5b60005b825181101561236557836003600085848151811061228d57fe5b60200260200101516001600160a01b03166001600160a01b031681526020019081526020016000206001016000876001600160a01b03166001600160a01b03168152602001908152602001600020819055507fe3a26f9d5b85989d691291f96d6e1dee763a07727f7b436843f0f6c7344773bc858585848151811061230e57fe5b602002602001015160405180846001600160a01b03166001600160a01b03168152602001838152602001826001600160a01b03166001600160a01b03168152602001935050505060405180910390a1600101612273565b506001949350505050565b60009182526004602090815260408084206001600160e01b031993909316845291905290205460ff1690565b6000546001600160a01b031681565b6001600160a01b038082166000908152600360209081526040808320938616835260019093019052205492915050565b6001600160a01b038316600090815260066020908152604080832085845282529182902083518351818152818402810190930190935260609290918391801561242e578160200160208202803883390190505b50905060005b84518110156124a95782600001600086838151811061244f57fe5b60200260200101516001600160a01b03166001600160a01b0316815260200190815260200160002060009054906101000a900460ff1682828151811061249157fe5b91151560209283029190910190910152600101612434565b5095945050505050565b6001600160a01b0382166000908152600360205260408120546c416c6c50726976696c6567657360981b811480611775575060008181526004602090815260408083206001600160e01b03198716845290915290205460ff1691505092915050565b6002818154811061252257fe5b6000918252602090912001546001600160a01b0316905081565b6001602052600090815260409020546001600160a01b031681565b336000908152600160205260408120546001600160a01b03166125aa576040805162461bcd60e51b81526020600480830191909152602482015263434f303160e01b604482015290519081900360640190fd5b61177533612f0c565b6001600160a01b031660009081526003602052604090205490565b6000806000806000806125df613377565b5050506001600160a01b03909516600090815260066020908152604080832096835295815290859020855160c081018752600182015467ffffffffffffffff8082168084526801000000000000000083048216958401869052600160801b830482169984018a9052600160c01b909204166060830181905260028401546080840181905260039094015460a0909301839052909993985096955093509150565b600080546001600160a01b03163314806126aa57506126aa336000356001600160e01b0319166124b3565b6126e4576040805162461bcd60e51b815260206004808301919091526024820152634f43303160e01b604482015290519081900360640190fd5b60005b8251811015612797576003600084838151811061270057fe5b60200260200101516001600160a01b03166001600160a01b0316815260200190815260200160002060008082016000905550507fa5f3b7626fd86ff989f1d22cf3d41d74591ea6eb99241079400b0c332a9a8f1183828151811061276057fe5b602002602001015160405180826001600160a01b03166001600160a01b0316815260200191505060405180910390a16001016126e7565b50600192915050565b60006c416c6c50726976696c6567657360981b831480611afd57505060009182526004602090815260408084206001600160e01b031993909316845291905290205460ff1690565b6001600160a01b0380841660009081526005602090815260408083209386168352600a909301905290812080548291829185101561286f57600081868154811061282e57fe5b60009182526020909120600290910201805460019091015490955067ffffffffffffffff80821695506801000000000000000090910416925061287c915050565b6000806000935093509350505b93509350939050565b600080546001600160a01b03163314806128b057506128b0336000356001600160e01b0319166124b3565b6128ea576040805162461bcd60e51b815260206004808301919091526024820152634f43303160e01b604482015290519081900360640190fd5b60005b82518110156129a257836003600085848151811061290757fe5b60200260200101516001600160a01b03166001600160a01b03168152602001908152602001600020600001819055507f9afab301010044973f29f6d845ad6130a43930d39e969652dd3eef4ce19c76c08484838151811061296457fe5b602002602001015160405180838152602001826001600160a01b03166001600160a01b031681526020019250505060405180910390a16001016128ed565b5060019392505050565b60006129c4336000356001600160e01b0319166124b3565b6129fe576040805162461bcd60e51b8152602060048083019190915260248201526327a1981960e11b604482015290519081900360640190fd5b6001600160a01b03861669416c6c50726f786965731415612a68576040805162461bcd60e51b8152602060048083019190915260248201527f5443303100000000000000000000000000000000000000000000000000000000604482015290519081900360640190fd5b612a72868661304a565b506001600160a01b038616600090815260056020908152604090912085519091612aa0918391880190613477565b508351612ab69060018301906020870190613477565b50828160020181905550866001600160a01b03167fb659c1acc075ce8ab04033204aa9b7ad647483d55193b38ed2b1c4b23a7ce94b87878787604051808581526020018060200180602001848152602001838103835286818151815260200191508051906020019080838360005b83811015612b3c578181015183820152602001612b24565b50505050905090810190601f168015612b695780820380516001836020036101000a031916815260200191505b50838103825285518152855160209182019187019080838360005b83811015612b9c578181015183820152602001612b84565b50505050905090810190601f168015612bc95780820380516001836020036101000a031916815260200191505b50965050505050505060405180910390a25060019695505050505050565b3360009081526005602090815260408083206001600160a01b0385168452600401909152902054919050565b336000908152600160205260408120546001600160a01b0316612c66576040805162461bcd60e51b81526020600480830191909152602482015263434f303160e01b604482015290519081900360640190fd5b61177533613143565b600080546001600160a01b0316331480612c9a5750612c9a336000356001600160e01b0319166124b3565b612cd4576040805162461bcd60e51b815260206004808301919091526024820152634f43303160e01b604482015290519081900360640190fd5b6c416c6c50726976696c6567657360981b831415612d3b576040805162461bcd60e51b8152602060048083019190915260248201527f4f43303400000000000000000000000000000000000000000000000000000000604482015290519081900360640190fd5b600083815260046020525b8251811015612daa576000848152600460205260408120845160019290869085908110612d6f57fe5b6020908102919091018101516001600160e01b0319168252810191909152604001600020805460ff1916911515919091179055600101612d46565b506040805184815290517f17462e5daca78ceabaeb9db768735a4bdaf13538a800bd47902b16cd317940149181900360200190a150600192915050565b600080600080600080612df8613377565b5050506001600160a01b03909616600090815260066020908152604080832097835296815286822095825260049095018552859020855160c081018752815467ffffffffffffffff8082168084526801000000000000000083048216988401899052600160801b830482169984018a9052600160c01b909204166060830181905260018401546080840181905260029094015460a090930183905290999698509591945092509050565b6000546001600160a01b03163314612eea576040805162461bcd60e51b815260206004808301919091526024820152634f57303160e01b604482015290519081900360640190fd5b612ef38161315c565b50565b3360009081526005602052604090206003015490565b6001600160a01b0380821660009081526001602052604081205490911680612f7d576040805162461bcd60e51b8152602060048083019190915260248201527f434f303200000000000000000000000000000000000000000000000000000000604482015290519081900360640190fd5b806001600160a01b03166000366040518083838082843760405192019450600093509091505080830381855af49150503d8060008114612fd9576040519150601f19603f3d011682016040523d82523d6000602084013e612fde565b606091505b50508092505081611f81576040805162461bcd60e51b81526020600480830191909152602482015263434f303360e01b604482015290519081900360640190fd5b6001600160a01b0316600090815260016020819052604090912080546001600160a01b031916905590565b600254600090821061308c576040805162461bcd60e51b8152602060048083019190915260248201526310d3cc0d60e21b604482015290519081900360640190fd5b60006002838154811061309b57fe5b6000918252602090912001546001600160a01b0390811691508416613109576040805162461bcd60e51b8152602060048083019190915260248201527f434f303500000000000000000000000000000000000000000000000000000000604482015290519081900360640190fd5b6001600160a01b03938416600090815260016020819052604090912080546001600160a01b03191692909516919091179093555090919050565b600061315661315183613214565b613315565b92915050565b6001600160a01b0381166131b9576040805162461bcd60e51b8152602060048083019190915260248201527f4f57303200000000000000000000000000000000000000000000000000000000604482015290519081900360640190fd5b600080546040516001600160a01b03808516939216917f8be0079c531659141344cd1fd0a4f28419497f9722a3daafe3b4186f6b6457e091a3600080546001600160a01b0319166001600160a01b0392909216919091179055565b6001600160a01b03808216600090815260016020526040812054606092168061326d576040805162461bcd60e51b8152602060048083019190915260248201526310d3cc0d60e21b604482015290519081900360640190fd5b806001600160a01b03166000366040518083838082843760405192019450600093509091505080830381855af49150503d80600081146132c9576040519150601f19603f3d011682016040523d82523d6000602084013e6132ce565b606091505b50935091508161330e576040805162461bcd60e51b81526020600480830191909152602482015263434f303360e01b604482015290519081900360640190fd5b5050919050565b6000815160201461336f576040805162461bcd60e51b8152602060048083019190915260248201527f4243303100000000000000000000000000000000000000000000000000000000604482015290519081900360640190fd5b506020015190565b6040805160c081018252600080825260208201819052918101829052606081018290526080810182905260a081019190915290565b8280548282559060005260206000209081019282156133e7579160200282015b828111156133e75782518255916020019190600101906133cc565b506133f39291506134e4565b5090565b50805460018160011615610100020316600290046000825580601f1061341d5750612ef3565b601f016020900490600052602060002090810190612ef391906134e4565b5080546000825590600052602060002090810190612ef391906134e4565b60405180604001604052806002906020820280388339509192915050565b828054600181600116156101000203166002900490600052602060002090601f016020900481019282601f106134b857805160ff19168380011785556133e7565b828001600101855582156133e757918201828111156133e75782518255916020019190600101906133cc565b61155791905b808211156133f357600081556001016134ea56fea265627a7a723158207f682b2a0fe2fd0b70c084e39fe11db35f1a3361d73c7d586675a9cd4b2a91f264736f6c634300050c0032",
  "source": "pragma solidity >=0.5.0 <0.6.0;\n\nimport \"./operable/OperableCore.sol\";\nimport \"./TokenStorage.sol\";\nimport \"./interface/ITokenCore.sol\";\n\n\n/**\n * @title TokenCore\n *\n * @author Cyril Lapinte - <cyril.lapinte@openfiz.com>\n *\n * Error messages\n *   TC01: Token cannot be equivalent to AllProxies\n *   TC02: Currency stored values must remain consistent\n *   TC03: The audit selector definition requires the same number of addresses and values\n **/\ncontract TokenCore is ITokenCore, OperableCore, TokenStorage {\n\n  /**\n   * @dev constructor\n   *\n   * @dev It is desired for now that delegates\n   * @dev cannot be changed once the core has been deployed.\n   */\n  constructor(string memory _name, address[] memory _delegates) public {\n    name_ = _name;\n    delegates = _delegates;\n  }\n\n  function name() public view returns (string memory) {\n    return name_;\n  }\n\n  function oracles() public view returns\n    (IUserRegistry, IRatesProvider, bytes32, uint256[] memory)\n  {\n    return (userRegistry, ratesProvider, currency, userKeys);\n  }\n\n  function auditSelector(\n    address _scope,\n    uint256 _scopeId,\n    address[] memory _addresses)\n    public view returns (bool[] memory)\n  {\n    AuditStorage storage auditStorage = audits[_scope][_scopeId];\n    bool[] memory selector = new bool[](_addresses.length);\n    for (uint256 i=0; i < _addresses.length; i++) {\n      selector[i] = auditStorage.selector[_addresses[i]];\n    }\n    return selector;\n  }\n\n  function auditShared(\n    address _scope,\n    uint256 _scopeId) public view returns (\n    uint64 createdAt,\n    uint64 lastTransactionAt,\n    uint64 lastReceptionAt,\n    uint64 lastEmissionAt,\n    uint256 cumulatedReception,\n    uint256 cumulatedEmission)\n  {\n    AuditData memory audit = audits[_scope][_scopeId].sharedData;\n    createdAt = audit.createdAt;\n    lastTransactionAt = audit.lastTransactionAt;\n    lastReceptionAt = audit.lastReceptionAt;\n    lastEmissionAt = audit.lastEmissionAt;\n    cumulatedReception = audit.cumulatedReception;\n    cumulatedEmission = audit.cumulatedEmission;\n  }\n\n  function auditUser(\n    address _scope,\n    uint256 _scopeId,\n    uint256 _userId) public view returns (\n    uint64 createdAt,\n    uint64 lastTransactionAt,\n    uint64 lastEmissionAt,\n    uint64 lastReceptionAt,\n    uint256 cumulatedEmission,\n    uint256 cumulatedReception)\n  {\n    AuditData memory audit = audits[_scope][_scopeId].userData[_userId];\n    createdAt = audit.createdAt;\n    lastTransactionAt = audit.lastTransactionAt;\n    lastReceptionAt = audit.lastReceptionAt;\n    lastEmissionAt = audit.lastEmissionAt;\n    cumulatedReception = audit.cumulatedReception;\n    cumulatedEmission = audit.cumulatedEmission;\n  }\n\n  function auditAddress(\n    address _scope,\n    uint256 _scopeId,\n    address _holder) public view returns (\n    uint64 createdAt,\n    uint64 lastTransactionAt,\n    uint64 lastReceptionAt,\n    uint64 lastEmissionAt,\n    uint256 cumulatedReception,\n    uint256 cumulatedEmission)\n  {\n    AuditData memory audit = audits[_scope][_scopeId].addressData[_holder];\n    createdAt = audit.createdAt;\n    lastTransactionAt = audit.lastTransactionAt;\n    lastReceptionAt = audit.lastReceptionAt;\n    lastEmissionAt = audit.lastEmissionAt;\n    cumulatedReception = audit.cumulatedReception;\n    cumulatedEmission = audit.cumulatedEmission;\n  }\n\n  /**************  ERC20  **************/\n  function tokenName() public view returns (string memory) {\n    return tokens_[msg.sender].name;\n  }\n\n  function tokenSymbol() public view returns (string memory) {\n    return tokens_[msg.sender].symbol;\n  }\n\n  function tokenDecimals() public view returns (uint256) {\n    return tokens_[msg.sender].decimals;\n  }\n\n  function tokenTotalSupply() public view returns (uint256) {\n    return tokens_[msg.sender].totalSupply;\n  }\n\n  function tokenBalanceOf(address _owner) public view returns (uint256) {\n    return tokens_[msg.sender].balances[_owner];\n  }\n\n  function tokenAllowance(address _owner, address _spender)\n    public view returns (uint256)\n  {\n    return tokens_[msg.sender].allowed[_owner][_spender];\n  }\n\n  function transfer(address, address, uint256)\n    public onlyProxy returns (bool status)\n  {\n    return delegateCall(msg.sender);\n  }\n\n  function transferFrom(address, address, address, uint256)\n    public onlyProxy returns (bool status)\n  {\n    return delegateCall(msg.sender);\n  }\n\n  function approve(address, address, uint256)\n    public onlyProxy returns (bool status)\n  {\n    return delegateCall(msg.sender);\n  }\n\n  function increaseApproval(address, address, uint256)\n    public onlyProxy returns (bool status)\n  {\n    return delegateCall(msg.sender);\n  }\n\n  function decreaseApproval(address, address, uint256)\n    public onlyProxy returns (bool status)\n  {\n    return delegateCall(msg.sender);\n  }\n\n  function canTransfer(address, address, uint256)\n    public onlyProxy returns (uint256)\n  {\n    return delegateCallUint256(msg.sender);\n  }\n\n  /***********  TOKEN DATA   ***********/\n  function token(address _token) public view returns (\n    bool mintingFinished,\n    uint256 allTimeIssued,\n    uint256 allTimeRedeemed,\n    uint256 allTimeSeized,\n    uint256[2] memory lock,\n    uint256 frozenUntil,\n    IRule[] memory rules,\n    IClaimable[] memory claimables) {\n    TokenData storage tokenData = tokens_[_token];\n\n    mintingFinished = tokenData.mintingFinished;\n    allTimeIssued = tokenData.allTimeIssued;\n    allTimeRedeemed = tokenData.allTimeRedeemed;\n    allTimeSeized = tokenData.allTimeSeized;\n    lock = [ tokenData.lock.startAt, tokenData.lock.endAt ];\n    frozenUntil = tokenData.frozenUntils[msg.sender];\n    rules = tokenData.rules;\n    claimables = tokenData.claimables;\n  }\n\n  function tokenProofs(address _token, address _holder, uint256 _proofId)\n    public view returns (uint256, uint64, uint64)\n  {\n    Proof[] storage proofs = tokens_[_token].proofs[_holder];\n    if (_proofId < proofs.length) {\n      Proof storage proof = proofs[_proofId];\n      return (proof.amount, proof.startAt, proof.endAt);\n    }\n    return (uint256(0), uint64(0), uint64(0));\n  }\n\n  /***********  TOKEN ADMIN  ***********/\n  function issue(address _token, uint256)\n    public onlyProxyOp(_token) returns (bool)\n  {\n    return delegateCall(_token);\n  }\n\n  function redeem(address _token, uint256)\n    public onlyProxyOp(_token) returns (bool)\n  {\n    return delegateCall(_token);\n  }\n\n  function mint(address _token, address, uint256)\n    public onlyProxyOp(_token) returns (bool)\n  {\n    return delegateCall(_token);\n  }\n\n  function finishMinting(address _token)\n    public onlyProxyOp(_token) returns (bool)\n  {\n    return delegateCall(_token);\n  }\n\n  function mintAtOnce(address _token, address[] memory, uint256[] memory)\n    public onlyProxyOp(_token) returns (bool)\n  {\n    return delegateCall(_token);\n  }\n\n  function seize(address _token, address, uint256)\n    public onlyProxyOp(_token) returns (bool)\n  {\n    return delegateCall(_token);\n  }\n\n  function freezeManyAddresses(\n    address _token,\n    address[] memory,\n    uint256) public onlyProxyOp(_token) returns (bool)\n  {\n    return delegateCall(_token);\n  }\n\n  function createProof(address _token, address)\n    public returns (bool)\n  {\n    return delegateCall(_token);\n  }\n\n  function defineLock(address _token, uint256, uint256, address[] memory)\n    public onlyProxyOp(_token) returns (bool)\n  {\n    return delegateCall(_token);\n  }\n\n  function defineRules(address _token, IRule[] memory)\n    public onlyProxyOp(_token) returns (bool)\n  {\n    return delegateCall(_token);\n  }\n\n  function defineClaimables(address _token, IClaimable[] memory)\n    public onlyProxyOp(_token) returns (bool)\n  {\n    return delegateCall(_token);\n  }\n\n  /************  CORE ADMIN  ************/\n  function defineToken(\n    address _token,\n    uint256 _delegateId,\n    string memory _name,\n    string memory _symbol,\n    uint256 _decimals)\n    public onlyCoreOp returns (bool)\n  {\n    require(_token != ALL_PROXIES, \"TC01\");\n    defineProxy(_token, _delegateId);\n    TokenData storage tokenData = tokens_[_token];\n    tokenData.name = _name;\n    tokenData.symbol = _symbol;\n    tokenData.decimals = _decimals;\n\n    emit TokenDefined(_token, _delegateId, _name, _symbol, _decimals);\n    return true;\n  }\n\n  function removeToken(address _token)\n    public onlyCoreOp returns (bool)\n  {\n    removeProxy(_token);\n    delete tokens_[_token];\n\n    emit TokenRemoved(_token);\n    return true;\n  }\n\n  function defineOracles(\n    IUserRegistry _userRegistry,\n    IRatesProvider _ratesProvider,\n    uint256[] memory _userKeys)\n    public onlyCoreOp returns (bool)\n  {\n    if (currency != bytes32(0)) {\n      // Updating the core currency is not yet supported\n      require(_userRegistry.currency() == currency, \"TC02\");\n    } else {\n      currency = _userRegistry.currency();\n    }\n    userRegistry = _userRegistry;\n    ratesProvider = _ratesProvider;\n    userKeys = _userKeys;\n\n    emit OraclesDefined(userRegistry, ratesProvider, currency, userKeys);\n    return true;\n  }\n\n  function defineAuditSelector(\n    address _scope,\n    uint256 _scopeId,\n    address[] memory _selectorAddresses,\n    bool[] memory _selectorValues) public onlyCoreOp returns (bool)\n  {\n    require(_selectorAddresses.length == _selectorValues.length, \"TC03\");\n\n    AuditStorage storage auditStorage = audits[_scope][_scopeId];\n    for (uint256 i=0; i < _selectorAddresses.length; i++) {\n      auditStorage.selector[_selectorAddresses[i]] = _selectorValues[i];\n    }\n\n    emit AuditSelectorDefined(_scope, _scopeId, _selectorAddresses, _selectorValues);\n    return true;\n  }\n}\n",
  "sourcePath": "/home/benjamin/work/clayer/contracts/c-layer-core/contracts/TokenCore.sol",
  "compiler": {
    "name": "solc",
    "version": "0.5.12+commit.7709ece9.Emscripten.clang"
  },
  "schemaVersion": "3.0.23",
  "updatedAt": "2020-03-14T17:10:02.722Z",
  "devdoc": {
    "author": "Cyril Lapinte - <cyril.lapinte@openfiz.com> * Error messages  TC01: Token cannot be equivalent to AllProxies  TC02: Currency stored values must remain consistent  TC03: The audit selector definition requires the same number of addresses and values*",
    "methods": {
      "assignOperators(bytes32,address[])": {
        "details": "assignOperators",
        "params": {
          "_operators": "addresses",
          "_role": "operator role. May be a role not defined yet."
        }
      },
      "assignProxyOperators(address,bytes32,address[])": {
        "details": "assignProxyOperators",
        "params": {
          "_operators": "addresses",
          "_role": "operator role. May be a role not defined yet."
        }
      },
      "constructor": {
        "details": "constructorIt is desired for now that delegatescannot be changed once the core has been deployed."
      },
      "coreRole(address)": {
        "details": "core role",
        "params": {
          "_address": "operator address"
        }
      },
      "defineRole(bytes32,bytes4[])": {
        "details": "defineRoles",
        "params": {
          "_privileges": "as 4 bytes of the method",
          "_role": "operator role"
        }
      },
      "hasCorePrivilege(address,bytes4)": {
        "details": "hasCorePrivilege",
        "params": {
          "_address": "operator address"
        }
      },
      "hasProxyPrivilege(address,address,bytes4)": {
        "details": "hasProxyPrivilegethe default proxy role can be set with proxy address(0)",
        "params": {
          "_address": "operator address"
        }
      },
      "proxyRole(address,address)": {
        "details": "proxy role",
        "params": {
          "_address": "operator address"
        }
      },
      "renounceOwnership()": {
        "details": "Allows the current owner to relinquish control of the contract."
      },
      "revokeOperators(address[])": {
        "details": "removeOperator",
        "params": {
          "_operators": "addresses"
        }
      },
      "roleHasPrivilege(bytes32,bytes4)": {
        "details": "roleHasPrivilege"
      },
      "rolePrivilege(bytes32,bytes4)": {
        "details": "has role privilegelow level access to role privilegeignores ALL_PRIVILEGES role"
      },
      "transferOwnership(address)": {
        "details": "Allows the current owner to transfer control of the contract to a newOwner.",
        "params": {
          "_newOwner": "The address to transfer ownership to."
        }
      }
    },
    "title": "TokenCore"
  },
  "userdoc": {
    "methods": {
      "defineToken(address,uint256,string,string,uint256)": {
        "notice": "**********  CORE ADMIN  ***********"
      },
      "issue(address,uint256)": {
        "notice": "*********  TOKEN ADMIN  **********"
      },
      "token(address)": {
        "notice": "*********  TOKEN DATA   **********"
      },
      "tokenName()": {
        "notice": "************  ERC20  *************"
      }
    }
  }
}